:020000040000FA
:100000000C945D000C9485000C9485000C94850084
:100010000C9485000C9485000C9485000C9485004C
:100020000C9485000C9412100C9485000C9485009F
:100030000C9485000C9485000C9485000C9485002C
:100040000C94C80F0C9485000C94960F0C94700FB0
:100050000C9485000C9485000C9485000C9485000C
:100060000C9450100C948500000000002400270020
:100070002A0000000000250028002B0004040404CE
:100080000404040402020202020203030303030342
:10009000010204081020408001020408102001021F
:1000A00004081020000000080002010000030407FB
:1000B00000000000000000006F1111241FBECFEFF0
:1000C000D8E0DEBFCDBF11E0A0E0B1E0EAE9FCE29C
:1000D00002C005900D92AA3BB107D9F723E0AAEB25
:1000E000B1E001C01D92AA36B207E1F710E0CDE5FC
:1000F000D0E004C02197FE010E943616CC35D1070E
:10010000C9F70E94F7110C944B160C940000089547
:100110000895AF92BF92CF92DF92EF92FF920F932A
:100120001F93CF93DF936C017B018B01040F151F8D
:10013000EB015E01AE18BF08C017D10759F06991F5
:10014000D601ED91FC910190F081E02DC601099559
:10015000892B79F7C501DF91CF911F910F91FF9006
:10016000EF90DF90CF90BF90AF900895FC01538D3A
:10017000448D252F30E0842F90E0821B930B541781
:1001800010F0CF96089501970895FC01918D828D0E
:10019000981761F0A28DAE0FBF2FB11D5D968C91A7
:1001A000928D9F5F9F73928F90E008958FEF9FEFE6
:1001B0000895FC01918D828D981731F0828DE80FA2
:1001C000F11D858D90E008958FEF9FEF0895FC015C
:1001D000918D228D892F90E0805C9F4F821B910929
:1001E0008F739927089585E992E00E94E70021E046
:1001F000892B09F420E0822F089580E090E0892B7C
:1002000029F00E94F30081110C9400000895FC0174
:10021000A48DA80FB92FB11DA35ABF4F2C91848D67
:1002200090E001968F739927848FA689B7892C93C4
:10023000A089B1898C91837080648C93938D848D17
:10024000981306C00288F389E02D80818F7D80831A
:100250000895EF92FF920F931F93CF93DF93EC01DA
:1002600081E0888F9B8D8C8D98131AC0E889F9895D
:10027000808185FF15C09FB7F894EE89FF89608360
:10028000E889F98980818370806480839FBF81E0E1
:1002900090E0DF91CF911F910F91FF90EF90089523
:1002A000F62E0B8D10E00F5F1F4F0F731127E02EFE
:1002B0008C8D8E110CC00FB607FCFACFE889F98936
:1002C000808185FFF5CFCE010E940701F1CFEB8D34
:1002D000EC0FFD2FF11DE35AFF4FF0829FB7F8940A
:1002E0000B8FEA89FB8980818062CFCFCF93DF9328
:1002F000EC01888D8823B9F0AA89BB89E889F9893E
:100300008C9185FD03C0808186FD0DC00FB607FC72
:10031000F7CF8C9185FFF2CF808185FFEDCFCE01A5
:100320000E940701E9CFDF91CF91089590E0FC0191
:10033000EC55FF4F2491FC01E057FF4F3491FC0135
:10034000E458FF4FE491EE23C9F0222339F0233023
:1003500001F1A8F4213019F1223029F1F0E0EE0F7B
:10036000FF1FEE58FF4FA591B4918FB7F894EC9111
:10037000611126C030953E233C938FBF08952730EE
:10038000A9F02830C9F0243049F7809180008F7D92
:1003900003C0809180008F7780938000DFCF84B589
:1003A0008F7784BDDBCF84B58F7DFBCF8091B0008C
:1003B0008F778093B000D2CF8091B0008F7DF9CF3E
:1003C0003E2BDACFCF93DF9390E0FC01E057FF4F55
:1003D000249184589F4FFC0184918823D1F090E0B0
:1003E000880F991FFC01E859FF4FA591B491FC01BA
:1003F000EE58FF4FC591D49161110EC09FB7F8948C
:100400008C91E22FE0958E238C932881E223E88360
:100410009FBFDF91CF9108958FB7F894EC91E22BB5
:10042000EC938FBFF6CF1F93CF93DF93182FEB0181
:1004300061E00E94E201209739F460E0812FDF91B2
:10044000CF911F910C949601CF3FD10511F461E03B
:10045000F5CFE12FF0E0EC55FF4FE491E33031F1BF
:1004600040F4E130B1F0E230E1F0C038D1057CF782
:10047000E4CFE73029F1E83059F1E430B1F7809169
:100480008000806280938000D0938B00C0938A00AC
:1004900004C084B5806884BDC7BDDF91CF911F9132
:1004A000089584B5806284BDC8BDF7CF8091800077
:1004B000806880938000D0938900C0938800EDCF3E
:1004C0008091B00080688093B000C093B300E5CF06
:1004D0008091B00080628093B000C093B400DDCF03
:1004E0003FB7F8948091170290911802A0911902D9
:1004F000B0911A0226B5A89B05C02F3F19F00196AE
:10050000A11DB11D3FBFBA2FA92F982F8827BC016D
:10051000CD01620F711D811D911D42E0660F771F95
:10052000881F991F4A95D1F708958F929F92AF9295
:10053000BF92CF92DF92EF92FF924B015C010E943B
:1005400070026B017C010E9470026C197D098E099A
:100550009F09683E734081059105A8F321E0821A46
:100560009108A108B10888EEC80E83E0D81EE11CEE
:10057000F11C81149104A104B10429F7FF90EF90BC
:10058000DF90CF90BF90AF909F908F9008952FB73E
:10059000F894609113027091140280911502909169
:1005A00016022FBF08952091ED01260F3327331F28
:1005B00021323105ECF420916B02FC0190E080E0E7
:1005C000243069F082E00895A091ED012191AC0101
:1005D00043535E4FA40FB52FB11D2C930196861780
:1005E00098F38091ED01680F6093ED0180E008952C
:1005F00081E0089510926B0281E080936A0210926C
:10060000450261E082E10E94960161E083E10E947F
:100610009601E9EBF0E080818E7F808380818D7F81
:10062000808388E48093B80085E48093BC000895BB
:10063000CF93DF9391E09093CC018823B9F0C091E0
:10064000B800D091BA008091BC008A7B8093BC0036
:1006500060E082E10E94960160E083E10E949601E1
:100660000E94FA02D093BA00C093B800DF91CF91F4
:1006700008958F929F92AF92BF92CF92DF92EF92A6
:10068000FF920F931F93CF93DF93D0919402D132B7
:1006900008F0D7C0182FC09193020E9470026B011E
:1006A0007C0180916B0281116BC082E080936B02B0
:1006B00010936A028FEF8093690210926802D093C0
:1006C0006702A3E7B2E0E7E4F2E080E0D81391C06C
:1006D0001092460280914602CC0FC82BC09346026E
:1006E00080914502813009F088C0109245020E9435
:1006F00070026B017C01809146028093BB00809167
:100700006D0290916E02A0916F02B0917002892BE0
:100710008A2B8B2BA1F00E94700200916D02109128
:100720006E0220916F02309170026C197D098E0962
:100730009F09061717072807390708F442C0809158
:10074000BC0083FDD8CF85EC8093BC000E94700272
:100750006B017C0180916B02823009F450C0809162
:1007600069028F3F09F46FC080916902803209F4F9
:100770006CC080916902803309F469C084E026C0AE
:1007800080916D0290916E02A0916F02B091700203
:10079000892B8A2B8B2B09F484CF0E9470028090C6
:1007A0006D0290906E02A0906F02B09070026C1972
:1007B0007D098E099F0986169706A806B90608F0D6
:1007C00070CF80916C020E94180385E01092720233
:1007D0001092940210927102DF91CF911F910F91AC
:1007E000FF90EF90DF90CF90BF90AF909F908F9051
:1007F00008959D9191938F5F69CF85EEA5CF8091EC
:100800006D0290916E02A0916F02B0917002892BDF
:100810008A2B8B2B09F49ECF0E94700200916D02EF
:1008200010916E0220916F02309170026C197D0957
:100830008E099F09061717072807390708F08ACF7E
:10084000C0CF81E0C3CF80E0C1CF82E0BFCF83E0E3
:10085000BDCFCF92DF92EF92FF920F931F93CF9372
:10086000DF93D82FC62F613208F098C00E94700223
:100870006B017C0180916B0281116BC081E08093E0
:100880006B0280936A029FEF909369021092680254
:100890009C0F909367028093460280914602DD0F81
:1008A000D82BD093460280914502813009F078C060
:1008B000109245020E9470026B017C0180914602F9
:1008C0008093BB0080916D0290916E02A0916F02A7
:1008D000B0917002892B8A2B8B2BA1F00E947002A1
:1008E00000916D0210916E0220916F0230917002A2
:1008F0006C197D098E099F09061717072807390704
:1009000008F448C08091BC0083FDD8CF85EC80936B
:10091000BC000E9470026B017C0180916B028130EF
:1009200009F440C0809168028C1710F4C0916802ED
:10093000E7E4F2E0A5E2B2E080E08C1355C08C2F32
:10094000DF91CF911F910F91FF90EF90DF90CF90AB
:10095000089580916D0290916E02A0916F02B09106
:100960007002892B8A2B8B2B09F484CF0E94700292
:1009700000916D0210916E0220916F023091700211
:100980006C197D098E099F09061717072807390773
:1009900008F070CF80916C020E941803C0E0CFCFA6
:1009A00085EEB5CF80916D0290916E02A0916F029D
:1009B000B0917002892B8A2B8B2B09F4AECF0E9449
:1009C000700200916D0210916E0220916F023091C1
:1009D00070026C197D098E099F09061717072807F1
:1009E000390708F09ACFD6CF91919D938F5FA5CF0D
:1009F0000895E091240280912302E81730F4F0E09A
:100A0000EB5DFD4F808190E008958FEF9FEF08959B
:100A100090912402809123022FEF3FEF981748F422
:100A2000E92FF0E0EB5DFD4F208130E09F5F909378
:100A30002402C90108958091230290912402891B08
:100A4000990B0895CF92DF92EF92FF920F931F932D
:100A5000CF93DF937C01CB018A0120917102222385
:100A600089F0EB016B01C40ED51ECC15DD0569F0D4
:100A70006991D701ED91FC910190F081E02DC701C2
:100A80000995F3CF642F0E94D302C801DF91CF9163
:100A90001F910F91FF90EF90DF90CF900895CF932B
:100AA000DF931F92CDB7DEB76983209171022223B5
:100AB000F9F020919402203258F021E030E0FC015E
:100AC0003383228390E080E00F90DF91CF910895EF
:100AD00080917202E82FF0E0ED58FD4F99819083EC
:100AE0008F5F809372028093940281E090E0ECCF5C
:100AF00061E0CE0101960E94D302F7CF90E080E042
:100B000008950F931F93CF93DF93EC01142F052FBC
:100B100089819A812B8131E0309371022093930275
:100B20001092720210929402DC01ED91FC910190FE
:100B3000F081E02D099589819A81DC01ED91FC918C
:100B40000190F081E02D602F099589819A81DC0167
:100B5000ED91FC910190F081E02D612F099581E0EC
:100B60000E9439038883DF91CF911F910F910895DF
:100B70001F93CF93DF93EC01142F89819A812B81EE
:100B800031E030937102209393021092720210921E
:100B90009402DC01ED91FC910190F081E02D09952A
:100BA00089819A81DC01ED91FC910190F081E02D29
:100BB000612F099581E00E9439038883DF91CF91ED
:100BC0001F9108950F931F93CF93DF938C01EB0137
:100BD000181619063CF5BC01625E7F4F6F3F710528
:100BE00019F014F06FEF70E085E00E94130270E0DE
:100BF00060E086E00E9413021C161D0614F5BE017B
:100C0000CF3FD10519F014F06FEF70E089E00E943A
:100C1000130270E060E08AE0DF91CF911F910F91A5
:100C20000C94130270E060E085E00E9413026EE114
:100C300070E0601B710B00321F4FDCF66FEF70E04D
:100C4000D8CF70E060E089E00E9413026627772722
:100C50006C1B7D0BC230DF4FF4F66FEF70E0DBCF23
:100C60001092C5011092C4010E94C7027093C30183
:100C70006093C20108950F931F93CF93DF938C016C
:100C8000D0E0C0E061E08DE00E94960162E370E098
:100C900080E090E00E94950260E08DE00E94960165
:100CA00064E670E080E090E00E94950221960C17C7
:100CB0001D0741F7DF91CF911F910F91089583E0B8
:100CC00090E00E943B066AE67FEF86E990E00E9492
:100CD000E2056AE872E080E090E00E94950270E030
:100CE00060E090E080E00C94E205FC0101900020BF
:100CF000E9F73197AF01481B590BBC0185E992E038
:100D00000C9489008F929F92AF92BF920F931F9382
:100D1000CF93DF93CDB7DEB7A1970FB6F894DEBFC0
:100D20000FBECDBF19A2423008F44AE08E010F5D1C
:100D30001F4F842E912CB12CA12CA50194010E944F
:100D40000116E62FB901CA01EA30F4F4E05DD801DA
:100D5000EE938D01232B242B252B79F790E080E057
:100D6000109719F0CD010E947506A1960FB6F89460
:100D7000DEBF0FBECDBFDF91CF911F910F91BF900E
:100D8000AF909F908F900895E95CE1CFCF93DF9370
:100D90000E947506EC0184E291E00E9475068C0FBA
:100DA0009D1FDF91CF910895CF93DF93EC0141E038
:100DB00060E80E94B80541E06FEFCE010E94B805DF
:100DC00040E060E0CE010E94B805498561E9CE01AE
:100DD0000E94B80541E060E0CE010E94B80540E005
:100DE0006FEFCE010E94B80540E060E8CE010E949E
:100DF000B80542E060E0CE01DF91CF910C94B805D8
:100E00000F931F93CF93DF93EC0189819A812B81FC
:100E100031E030937102209393021092720210928B
:100E20009402DC01ED91FC910190F081E02D099597
:100E300081E00E943903888362E08B810E9429044B
:100E4000109224028093230289819A81DC01ED9122
:100E5000FC910284F385E02D099500E0182F89812B
:100E60009A81DC01ED91FC910284F385E02D0995D6
:100E7000802B912BDF91CF911F910F910895CF92ED
:100E8000DF92EF92FF92CF93DF936C01990FEE0800
:100E9000FF08F7FE19C06DE285E992E00E94290182
:100EA000EC0166277727CB016C197D098E099F0914
:100EB0004AE00E9482068C0F9D1FDF91CF91FF9028
:100EC000EF90DF90CF9008954AE0C701B601DF911F
:100ED000CF91FF90EF90DF90CF900C948206CF934C
:100EE000DF93EC0189819A812B8131E0309371028B
:100EF000209393021092720210929402DC01ED9101
:100F0000FC910190F081E02D099581E00E94390368
:100F1000888361E08B810E942904109224028093CF
:100F2000230289819A81DC01ED91FC910284F38591
:100F3000E02D0995DF91CF910895CF93DF93EC01D8
:100F4000462F416060E00E94B8050E94C702788782
:100F50006F8363E1CE010E946F07877089F48C81F3
:100F60009D81892BB1F30E94C7022F813885621BB6
:100F7000730B8C819D818617970758F780E00BC013
:100F800041E06BE0CE010E94B80540E060E0CE0198
:100F90000E94B80581E0DF91CF9108958F929F92D2
:100FA000AF92BF92CF92DF92EF92FF920F931F9377
:100FB000CF93DF936C017B01EA0160E50E946F072C
:100FC0008F5F880F90E09983888366E4C6010E9452
:100FD0006F07082F10E00F5F1F4F1D830C83A88140
:100FE000B0E020E03FE24AE350E00E9423166C505C
:100FF0007E4F8F4F9F4F38EE832E33E0932EA12CE0
:10100000B12CA50194010E940116D8010E942E1650
:101010006C507E4F8F4F9F4FA50194010E94011687
:101020002A873B874C875D8761E5C6010E940007E0
:101030008C01112702C0000F111F9A95E2F70F5F74
:101040001F4F1F830E83A881B0E020E03FE24AE3F8
:1010500050E00E9423166C507E4F8F4F9F4FA5018A
:1010600094010E940116D8010E9423166C507E4FF5
:101070008F4F9F4FA50194010E9401162E873F8735
:10108000488B598B60E7C6010E946F078F5F880FFE
:1010900090E09B838A8361E7C6010E9400079C0160
:1010A000992702C0880F991F3A95E2F70196998710
:1010B0008887F7012381222331F02E813F81821B13
:1010C000930B99878887AA81B0E020E03FE24AE34A
:1010D00050E00E9423166C507E4F8F4F9F4F28EE9A
:1010E000C22E23E0D22EE12CF12CA70196010E9402
:1010F0000116A885B9850E9423166C507E4F8F4F2C
:101100009F4FA70196010E9401162A8B3B8B4C8BA7
:101110005D8BDF91CF911F910F91FF90EF90DF904A
:10112000CF90BF90AF909F908F900895CF93DF9313
:10113000EB0161E00E946F0784FB992790F9988387
:1011400083FB992790F99A8382FB992790F99983D9
:1011500086FB992790F99B83881F8827881F8C839B
:10116000DF91CF9108953F924F925F926F927F925D
:101170008F929F92AF92BF92CF92DF92EF92FF92A7
:101180000F931F93CF93DF93CDB7DEB7A1970FB621
:10119000F894DEBF0FBECDBF8C0160EC0E946F07DC
:1011A0008E3EA9F087E291E00E94750660ECC801CE
:1011B0000E946F07682F70E090E080E04AE00E9494
:1011C000820684E291E00E947506F12C8EC469E8E3
:1011D000C8010E946F07482F416069E8C8010E945A
:1011E000B80540E068E8C8010E94B80541E060E841
:1011F000C8010E94B80541E06FEFC8010E94B80520
:1012000040E060E0C8010E94B80561E9C8010E94A1
:101210006F07D80119968C9341E060E0C8010E94E5
:10122000B80540E06FEFC8010E94B80540E060E8F3
:10123000C8010E94B80560E6C8010E946F07482FE8
:10124000426160E6C8010E94B80540E250E064E4F3
:10125000C8010E9481054FEF61E0C8010E94B805F6
:1012600041E060E8C8010E94B80541E06FEFC801A5
:101270000E94B80540E060E0C8010E94B80546E061
:101280006FEFC8010E94B80563E8C8010E946F07AC
:10129000482F446063E8C8010E94B80547E06FEF3B
:1012A000C8010E94B80541E061E8C8010E94B80584
:1012B00041E060E8C8010E94B8054BE664E9C80156
:1012C0000E94B80540E063E8C8010E94B8050E948A
:1012D000C702F8017087678363E8C8010E946F073F
:1012E000811117C0D80114968D919C91892BA1F37F
:1012F0000E94C702F80127813085621B730B84812D
:1013000095818617970740F788E791E00E94C60607
:101310005CCF41E063E8C8010E94B80562E9C801FA
:101320000E946F07D82E40E061E8C8010E94B8050E
:1013300046E06FEFC8010E94B80563E8C8010E944B
:101340006F07482F4B7F63E8C8010E94B80541E052
:101350006FEFC8010E94B80541E060E0C8010E943B
:10136000B80540E06FEFC8010E94B80540E060E8B2
:10137000C8010E94B805D80111968D919C911297D1
:1013800013962C9131E030937102209393021092C6
:10139000720210929402DC01ED91FC910190F081B7
:1013A000E02D60EB099581E00E943903F80180830C
:1013B00066E083810E942904109224028093230214
:1013C0007E01F7E1EF0EF11C3701B7E0CB2ECA9496
:1013D000CC2079F0D80111968D919C91DC01ED9192
:1013E000FC910284F385E02D0995F30181933F017F
:1013F000EECF41E06FEFC8010E94B80540E06FE416
:10140000C8010E94B8054CE26EE4C8010E94B8050C
:1014100040E06FEFC8010E94B80544EB66EBC801DD
:101420000E94B805BCE0D7FEB0E0A0E090E061E02B
:1014300070E08D2D8F77492F46954695469550E063
:10144000F701E40FF51F2081F92FF770DF2E9B17AE
:1014500010F08A1339C0F701E40FF51FAB0101C08A
:10146000440FDA94EAF74095242320839F5F90335A
:1014700011F7D80111968D919C91129713962C918A
:1014800031E0309371022093930210927202109215
:101490009402DC01ED91FC910190F081E02D60EB74
:1014A0000995A7E0DA2EDA94DD20C1F0F8018181F8
:1014B0009281D7016D917D01DC01ED91FC9101904C
:1014C000F081E02D0995EFCF30E002C035952795EA
:1014D000FA95E2F720FFCACFAF5FC8CF81E00E9444
:1014E0003903F801808341E06FEFC8010E94B8051D
:1014F00040E060E0C8010E94B80540E06FEFC8011D
:101500000E94B80540E069E0C8010E94B80540E0CB
:1015100060E1C8010E94B80540E061E1C8010E9495
:10152000B80541E064E2C8010E94B8054FEF65E2EA
:10153000C8010E94B80540E065E7C8010E94B805EF
:1015400041E06FEFC8010E94B8054CE26EE4C801AB
:101550000E94B80540E068E4C8010E94B80540E276
:1015600060E3C8010E94B80540E06FEFC8010E9427
:10157000B80549E060E3C8010E94B80540E064E5B1
:10158000C8010E94B80544E061E3C8010E94B805A3
:1015900043E062E3C8010E94B80543E860E4C80183
:1015A0000E94B80545E266E4C8010E94B80540E023
:1015B00060E6C8010E94B80540E067E2C8010E94E9
:1015C000B80546E060E5C8010E94B80540E061E565
:1015D000C8010E94B80546E962E5C8010E94B80545
:1015E00048E066E5C8010E94B80540E367E5C80128
:1015F0000E94B80540E061E6C8010E94B80540E0DD
:1016000062E6C8010E94B80540E064E6C8010E9495
:10161000B80540E065E6C8010E94B80540EA66E604
:10162000C8010E94B80541E06FEFC8010E94B805EB
:1016300042E362E2C8010E94B80544E167E4C801E0
:101640000E94B8054FEF69E4C8010E94B80540E068
:101650006AE4C8010E94B80540E06FEFC8010E942B
:10166000B8054AE06AE7C8010E94B80540E06BE7A8
:10167000C8010E94B80541E268E7C8010E94B805A8
:1016800041E06FEFC8010E94B80544E363E2C8017E
:101690000E94B80540E062E4C8010E94B8054FEF1F
:1016A00064E4C8010E94B80546E265E4C8010E94EE
:1016B000B80545E066E4C8010E94B80540E460E46E
:1016C000C8010E94B80546E06EE0C8010E94B80556
:1016D0004AE160E2C8010E94B80540E463E4C80141
:1016E0000E94B80540E06FEFC8010E94B80543E0D2
:1016F00064E3C8010E94B80544E465E3C8010E94A0
:10170000B80541E06FEFC8010E94B80544E061E30D
:10171000C8010E94B80549E06BE4C8010E94B80501
:1017200045E06CE4C8010E94B80544E06DE4C801DE
:101730000E94B80540E06FEFC8010E94B80540E084
:1017400064E4C8010E94B80540E265E4C8010E9453
:10175000B80548E067E4C8010E94B80548E268E4BB
:10176000C8010E94B80540E067E6C8010E94B805BC
:1017700044E060E7C8010E94B80541E061E7C801A4
:101780000E94B8054EEF62E7C8010E94B80540E02C
:1017900066E7C8010E94B80540E067E7C8010E94FB
:1017A000B80541E06FEFC8010E94B80541E06DE067
:1017B000C8010E94B80540E06FEFC8010E94B8055B
:1017C00041E060E8C8010E94B80548EF61E0C80147
:1017D0000E94B80541E06FEFC8010E94B80541E0E2
:1017E0006EE8C8010E94B80541E060E0C8010E94AF
:1017F000B80540E06FEFC8010E94B80540E060E81E
:10180000C8010E94B80544E06AE0C8010E94B8051A
:1018100064E8C8010E946F07482F4F7E64E8C80142
:101820000E94B80541E06BE0C8010E94B805BE0106
:10183000635E7F4FC8010E949608AE014F5F5F4F05
:10184000BE01635E7F4FC8010E94CE078D8D882345
:1018500009F4FAC08B859C85AD85BE858C57924F67
:10186000AF4FBF4F2F8D222309F4F3C04B855C850A
:101870006D857E854E545D4F6F4F7F4F440F551FD2
:10188000661F771F840F951FA61FB71F28A122234D
:1018900061F04F85588969897A894C565D4F6F4F41
:1018A0007F4F840F951FA61FB71F29A1222361F028
:1018B0004B895C896D897E894A5D5D4F6F4F7F4F93
:1018C000840F951FA61FB71FF80182879387A487EF
:1018D000B58748EE61E0C8010E94B805D8011A96A4
:1018E000CD90DD90ED90FC901D97B0E2CB16BEE45C
:1018F000DB06E104F10408F4DAC0BE01635E7F4F49
:10190000C8010E949608AE014F5F5F4FBE01635E43
:101910007F4FC8010E94CE078D8D882309F4A6C091
:101920008B859C85AD85BE858C57924FAF4FBF4F41
:101930002F8D222309F49FC04B855C856D857E85A4
:101940004E545D4F6F4F7F4F440F551F661F771FDB
:10195000840F951FA61FB71F38A0332061F04F8555
:10196000588969897A894C565D4F6F4F7F4F840F34
:10197000951FA61FB71F29A1222309F498C04C0167
:101980005D01E6E28E0EE2E09E1EA11CB11CC814B1
:10199000D904EA04FB0408F48AC0AB81B0E020E07B
:1019A0003FE24AE350E00E9423162B013C01F4EF92
:1019B0004F0EF1E05F1E611C711CA70196012819F2
:1019C00039094A095B09A8EEB3E00E9423164B01CE
:1019D0005C01C301B20120ED37E040E050E00E941D
:1019E0000116820E931EA41EB51EC301B20128EE7D
:1019F00033E040E050E00E940116C501B4010E94AE
:101A00000116332031F08F819885280F391F411D31
:101A1000511D211531054105510509F47FC0BA0159
:101A2000A901415051096109710990E080E02A0142
:101A30003B01442445284628472851F1769567956F
:101A4000579547950196F3CF86E39BE0A0E0B0E081
:101A500009CF2E8D222309F419CF4B855C856D8526
:101A60007E854C565D4F6F4F7F4F0CCF86E39BE0DA
:101A7000A0E0B0E05DCF2E8D222309F46DCF4B8521
:101A80005C856D857E854C565D4F6F4F7F4F60CF77
:101A9000982F8827482B592B61E7C8010E948105A0
:101AA000D8011A96CD92DD92ED92FC921D9741E0FD
:101AB00061E0C8010E94B80560E4C8010E949D076A
:101AC000F82E86E391E0FF2071F042E061E0C8016A
:101AD0000E94B80560E0C8010E949D07F82E8111A0
:101AE00020C087E591E00E94C6068F2DA1960FB613
:101AF000F894DEBF0FBECDBFDF91CF911F910F9144
:101B0000FF90EF90DF90CF90BF90AF909F908F901D
:101B10007F906F905F904F903F90089550E040E02D
:101B2000BBCF48EE61E0C8010E94B805DECF0F933D
:101B30001F93CF93DF93EC010E94C70278876F83D6
:101B400063E1CE010E946F078770C9F48C819D818B
:101B5000892BB1F30E94C7022F813885621B730B5A
:101B60008C819D818617970758F781E08E830FEF50
:101B70001FEFC801DF91CF911F910F9108956EE182
:101B8000CE010E9400078C0141E06BE0CE010E9473
:101B9000B805EFCF2F923F924F925F926F927F9254
:101BA0008F929F92AF92BF92CF92DF92EF92FF926D
:101BB0000F931F93CF93DF93EC010E94C7027093A2
:101BC000CB016093CA018DE493E00E94970D90933E
:101BD0002202809321028FE393E00E94970D90935D
:101BE000200280931F028BE593E00E94970D5C0119
:101BF0009093C9018093C80180901F0290902002A9
:101C000020902102309022028401021913091093BE
:101C1000C7010093C6018091C4019091C501B8012C
:101C2000681B790B072E000C880B990B0E94081576
:101C300020E030E04AE754E40E9494156B017C01F7
:101C40006091CA017091CB018091C2019091C30152
:101C5000681B790B90E080E00E9406159B01AC01A7
:101C6000C701B6010E945E142B013C014092BE01E7
:101C70005092BF016092C0017092C101B801012E63
:101C8000000C880B990B0E94081520E030E040E41E
:101C900050E40E94941520E030E040E251E40E94BC
:101CA0005E146B017C01A3019201C301B2010E9489
:101CB000F21320E030E040EA51E40E945E149B0100
:101CC000AC01C701B6010E94F2130E94D0146B014F
:101CD0007093BD016093BC018BEFA816B1040CF0AA
:101CE0006DC0C4018A199B09880F991F9093BB018D
:101CF0008093BA012091BA013091BB011C161D06D8
:101D00000CF061C02C0D3D1DC9018C0F9D1FBE0143
:101D1000621B730B0E94E205C1010E943F0783E82A
:101D200091E00E947506C4010E943F0783E891E09C
:101D30000E947506C8010E943F0783E891E00E9457
:101D40007506C301B2010E94D014CB010E943F0767
:101D500083E891E00E94750690E080E00E943F07D2
:101D600083E891E00E947506C6010E943F0784E265
:101D700091E00E9475068091C6019091C7019093F1
:101D8000C5018093C4018091CA019091CB019093C9
:101D9000C3018093C201DF91CF911F910F91FF90FA
:101DA000EF90DF90CF90BF90AF909F908F907F90FB
:101DB0006F905F904F903F902F9008951092BB01CD
:101DC0001092BA0197CFB601621B730BCE01861B2E
:101DD000970B6C0F7D1F9ECFCF93DF9381E090E038
:101DE0000E943B068DE493E00E94970D909322029F
:101DF000809321028FE393E00E94970D909320023D
:101E000080931F028BE593E00E94970D9093C90188
:101E10008093C8010E9430068091C8019091C90149
:101E20008A3F91052CF48AE69FEF0E94CA0DF4CFF9
:101E3000CAE0D0E08AE69FEF0E94CA0D2197D1F751
:101E400081E090E00E943B066AE67FEF8AE69FEF22
:101E50000E94E20564EF71E080E090E00E9495024C
:101E600070E060E090E080E0DF91CF910C94E205BB
:101E700085ED8093BC0080916D0290916E02A091DF
:101E80006F02B09170020796A11DB11D23E0B695B7
:101E9000A795979587952A95D1F72091BC0024FDA9
:101EA00003C010926B02089540916D0250916E0232
:101EB00060916F0270917002452B462B472B69F39E
:101EC0000097A105B10541F02AE22A95F1F700C07B
:101ED0000197A109B109E1CF80916C020C9418031C
:101EE0001F920F920FB60F9211242F933F934F938F
:101EF0005F936F937F938F939F93AF93BF93EF9372
:101F0000FF9385E992E00E940701FF91EF91BF9155
:101F1000AF919F918F917F916F915F914F913F9181
:101F20002F910F900FBE0F901F9018951F920F9238
:101F30000FB60F9211242F938F939F93EF93FF93DC
:101F4000E091A502F091A6028081E091AB02F091B0
:101F5000AC0282FD1BC090818091AE028F5F8F73B7
:101F60002091AF02821741F0E091AE02F0E0EB5613
:101F7000FD4F958F8093AE02FF91EF919F918F91CE
:101F80002F910F900FBE0F901F9018958081F4CF66
:101F90001F920F920FB60F9211242F933F938F939E
:101FA0009F93AF93BF938091130290911402A091DD
:101FB0001502B09116023091120223E0230F2D3743
:101FC00058F50196A11DB11D2093120280931302B2
:101FD00090931402A0931502B093160280911702F9
:101FE00090911802A0911902B0911A020196A11DB8
:101FF000B11D8093170290931802A0931902B09319
:102000001A02BF91AF919F918F913F912F910F90A5
:102010000FBE0F901F90189526E8230F0296A11D62
:10202000B11DD2CF1F920F920FB60F9211248F9332
:10203000809111028F5F8093110280911002809134
:10204000110281110AC0809110021092B2008F918A
:102050000F900FBE0F901F901895809110028091E5
:1020600011028823A1F380911002809110028F5FEA
:1020700080931002109211021092B200809110020F
:10208000882339F080911002893018F48091100271
:10209000DECF809110028930D0F210921002D7CF9B
:1020A0001F920F920FB60F9211242F933F934F93CD
:1020B0005F936F937F938F939F93AF93BF93EF93B0
:1020C000FF938091B900887F803609F44AC0F0F50B
:1020D000883209F4A7C018F5803109F49BC0B8F420
:1020E000882309F4F9C0883009F494C0FF91EF9176
:1020F000BF91AF919F918F917F916F915F914F9120
:102100003F912F910F900FBE0F901F90189588311F
:1021100009F488C0803251F78093690214C080347A
:1021200009F49DC040F48033B9F38833F9F6809305
:10213000690285ECB0C0803509F485C0883509F4A2
:1021400096C0883499F60E94380FD0CF883909F4A8
:102150008CC038F5883729F050F4883611F0803774
:1021600029F683E080936B0210920F0257C08838E3
:1021700009F47BC0803919F0803809F0B7CF80911D
:102180000F02803208F071C0E0910F0281E08E0FE3
:1021900080930F028091BB00F0E0E151FE4F8083FD
:1021A0003DC0803B39F0E0F4803A09F479C0883AC8
:1021B00009F09CCF84E080936B021092EE011092A4
:1021C000ED01E0911D02F0911E0209958091ED0153
:1021D00081110FC081E08093ED011092CD0109C003
:1021E000803C09F4A6CF883C09F4A3CF883B09F0D2
:1021F0007DCFE091EE0181E08E0F8093EE01F0E063
:10220000E353FE4F80818093BB009091EE0180915B
:10221000ED0129C0809146028093BB0085EC80933C
:10222000BC0064CF9091680280916702981758F5BE
:10223000E091680281E08E0F80936802F0E0E95B34
:10224000FD4F8081E9CFE091680281E08E0F80939D
:1022500068028091BB00F0E0E95BFD4F80839091C4
:102260006802809167029817C8F285E8D8CFE0919C
:10227000680281E08E0F809368028091BB00F0E0DD
:10228000E95BFD4F808380916A0281115CCF81E020
:102290008093450284EA8093BC0010926B0226CFA3
:1022A00085EC8093BC0010926B0280910F0280320B
:1022B00030F4E0910F02F0E0E151FE4F10826091A6
:1022C0000F0270E0E0911B02F0911C028FEE91E092
:1022D000099510920F020ACF1092690234CF109222
:1022E00098021092970288EE93E0A0E0B0E080930D
:1022F000990290939A02A0939B02B0939C0224E0CF
:1023000031E0309396022093950225EC30E0309333
:10231000A2022093A10224EC30E03093A402209387
:10232000A30220EC30E03093A6022093A50221EC1A
:1023300030E03093A8022093A70222EC30E03093E3
:10234000AA022093A90226EC30E03093AC0220933D
:10235000AB021092AE021092AF021092B002109235
:10236000B102109235031092340380933603909398
:102370003703A0933803B093390386E191E090933B
:1023800033038093320380913E03883068F58F5F7A
:1023900080933E038093690322E333E030935D032F
:1023A00020935C0389E280935E0310926003109295
:1023B0005F031092610330934F0320934E03809389
:1023C0005003109252031092510310925303309312
:1023D00041032093400380934203109244031092E0
:1023E000430310924503089510926903D5CF789462
:1023F00084B5826084BD84B5816084BD85B582600A
:1024000085BD85B5816085BD80916E0081608093BA
:102410006E00109281008091810082608093810023
:102420008091810081608093810080918000816033
:10243000809380008091B10084608093B10080918E
:10244000B00081608093B00080917A0084608093B6
:102450007A0080917A00826080937A0080917A007D
:10246000816080937A0080917A00806880937A00FE
:102470001092C100E091A502F091A60282E0808353
:10248000E091A102F091A2021082E091A302F091EA
:10249000A40280E180831092AD02E091A902F09144
:1024A000AA0286E08083E091A702F091A8028081D1
:1024B00080618083E091A702F091A802808188600A
:1024C0008083E091A702F091A802808180688083D8
:1024D000E091A702F091A80280818F7D8083109205
:1024E00024021092230210927202109294020E940F
:1024F000FA0287E890E090931E0280931D0288E81C
:1025000090E090931C0280931B0261E08BE00E949C
:10251000E20161E088E00E94E20161E087E00E9460
:10252000E20160E08BE00E94960160E088E00E949A
:10253000960160E087E00E94960164E670E080E02A
:1025400090E00E94950260E08BE00E94E20162E36D
:1025500070E080E090E00E9495028BE593E00E949D
:10256000B308811109C085E891E00E94750683E0F7
:1025700090E00E943B06F1CF84EF91E090936003DE
:1025800080935F038BE593E00E94D40641E36AE801
:102590008BE593E00E94B80581E380935E0360E0E1
:1025A00088E00E94E20162E370E080E090E00E9437
:1025B00095028DE493E00E94B308811109C086E979
:1025C00091E00E94750683E090E00E943B06F1CF07
:1025D00084EF91E090935203809351038DE493E054
:1025E0000E94D40643E36AE88DE493E00E94B805B4
:1025F00083E38093500360E087E00E94E20162E39E
:1026000070E080E090E00E9495028FE393E00E94EA
:10261000B308811109C087EA91E00E94750683E042
:1026200090E00E943B06F1CF84EF91E09093440349
:10263000809343038FE393E00E94D40645E36AE866
:102640008FE393E00E94B80585E38093420385E021
:1026500090E00E943B06C0E0D0E00E94EC0E0E9499
:102660005F0666E970E086E990E00E94E2058DE48D
:1026700093E00E94970D90932202809321028FE3B2
:1026800093E00E94970D9093200280931F02209167
:10269000210230912202820F931F893B91403CF727
:1026A0000E94C7026B017C010E943006EE24FF24C9
:1026B0000E94C7026C197D098E099F09683E73400C
:1026C0008105910528F486E990E00E94CA0DF0CFBB
:1026D00070E060E090E080E00E94E2050E94EC0E75
:1026E0000E945F0666E970E086E990E00E94E205DC
:1026F0008DE493E00E94970D909322028093210233
:102700008FE393E00E94970D9093200280931F0225
:102710002091210230912202820F931F893B914028
:102720003CF70E9430068091210290912202209174
:102730001F0230912002820F931F883B91402CF49E
:1027400086E990E00E94CA0DEECF66E970E086E966
:1027500090E00E94E20581E090E00E943B068DE45B
:1027600093E00E94970D90932202809321028FE3C1
:1027700093E00E94970D9093200280931F02209176
:10278000210230912202820F931F893B91403CF736
:102790000E94C7026B017C010E943006EE24FF24D8
:1027A0000E94C7026C197D098E099F096C3D754016
:1027B0008105910528F486E990E00E94CA0DF0CFCA
:1027C00070E060E090E080E00E94E205209709F46C
:1027D00044CF0E94F300882309F43FCF0E940000F9
:1027E0003CCF5058BB27AA270E9409140C945A15B5
:1027F0000E944C1538F00E94531520F039F49F3F89
:1028000019F426F40C9449150EF4E095E7FB0C94AA
:102810004315E92F0E946B1558F3BA176207730727
:102820008407950720F079F4A6F50C948D150EF425
:10283000E0950B2EBA2FA02D0B01B90190010C01D0
:10284000CA01A0011124FF27591B99F0593F50F4E8
:10285000503E68F11A16F040A22F232F342F442740
:10286000585FF3CF469537952795A795F040539538
:10287000C9F77EF41F16BA0B620B730B840BBAF008
:102880009150A1F0FF0FBB1F661F771F881FC2F773
:102890000EC0BA0F621F731F841F48F48795779587
:1028A0006795B795F7959E3F08F0B0CF9395880F41
:1028B00008F09927EE0F9795879508950E94721456
:1028C0000C945A150E94531558F00E944C1540F074
:1028D00029F45F3F29F00C94431551110C948E1587
:1028E0000C9449150E946B1568F39923B1F3552395
:1028F00091F3951B550BBB27AA2762177307840713
:1029000038F09F5F5F4F220F331F441FAA1FA9F3A8
:1029100035D00E2E3AF0E0E832D091505040E69596
:10292000001CCAF72BD0FE2F29D0660F771F881FF7
:10293000BB1F261737074807AB07B0E809F0BB0BEA
:10294000802DBF01FF2793585F4F3AF09E3F5105FE
:1029500078F00C9443150C948E155F3FE4F3983E89
:10296000D4F3869577956795B795F7959F5FC9F7E7
:10297000880F911D9695879597F90895E1E0660F68
:10298000771F881FBB1F621773078407BA0720F0E1
:10299000621B730B840BBA0BEE1F88F7E09508954A
:1029A0000E94D7146894B1110C948E1508950E945A
:1029B000731588F09F5798F0B92F9927B751B0F049
:1029C000E1F0660F771F881F991F1AF0BA95C9F7B3
:1029D00014C0B13091F00E948D15B1E008950C94AF
:1029E0008D15672F782F8827B85F39F0B93FCCF362
:1029F000869577956795B395D9F73EF49095809530
:102A0000709561957F4F8F4F9F4F0895E89409C04F
:102A100097FB3EF490958095709561957F4F8F4F11
:102A20009F4F9923A9F0F92F96E9BB279395F69527
:102A3000879577956795B795F111F8CFFAF4BB0FA5
:102A400011F460FF1BC06F5F7F4F8F4F9F4F16C009
:102A5000882311F096E911C0772321F09EE8872F93
:102A6000762F05C0662371F096E8862F70E060E04F
:102A70002AF09A95660F771F881FDAF7880F9695C8
:102A8000879597F9089597F99F6780E870E060E06F
:102A900008959FEF80EC089500240A9416161706F7
:102AA00018060906089500240A941216130614063F
:102AB00005060895092E0394000C11F4882352F0A2
:102AC000BB0F40F4BF2B11F460FF04C06F5F7F4F5A
:102AD0008F4F9F4F089557FD9058440F551F59F041
:102AE0005F3F71F04795880F97FB991F61F09F3FFB
:102AF00079F087950895121613061406551FF2CF24
:102B00004695F1DF08C0161617061806991FF1CF73
:102B100086957105610508940895E894BB2766279A
:102B20007727CB0197F908950E94A7150C945A15A1
:102B30000E944C1538F00E94531520F0952311F097
:102B40000C9443150C94491511240C948E150E9475
:102B50006B1570F3959FC1F3950F50E0551F629F61
:102B6000F001729FBB27F00DB11D639FAA27F00DE6
:102B7000B11DAA1F649F6627B00DA11D661F829F0D
:102B80002227B00DA11D621F739FB00DA11D621FF2
:102B9000839FA00D611D221F749F3327A00D611D0F
:102BA000231F849F600D211D822F762F6A2F1124F1
:102BB0009F5750409AF0F1F088234AF0EE0FFF1F24
:102BC000BB1F661F771F881F91505040A9F79E3F7B
:102BD000510580F00C9443150C948E155F3FE4F37F
:102BE000983ED4F3869577956795B795F795E795D1
:102BF0009F5FC1F7FE2B880F911D9695879597F9DA
:102C00000895A1E21A2EAA1BBB1BFD010DC0AA1F2D
:102C1000BB1FEE1FFF1FA217B307E407F50720F045
:102C2000A21BB30BE40BF50B661F771F881F991FC0
:102C30001A9469F760957095809590959B01AC0109
:102C4000BD01CF0108950E943C16A59F900DB49F31
:102C5000900DA49F800D911D11240895B7FF0C9431
:102C600023160E942316821B930B0895EE0FFF1F5D
:102C70000590F491E02D0994A29FB001B39FC0018B
:102C8000A39F700D811D1124911DB29F700D811D98
:102C90001124911D0895F894FFCF00000000290130
:102CA0008900B6007601E700C500D90000000000E9
:102CB0004F0522057E05F8041B050805F9040D0AD9
:102CC000006572726F722069645F6D6F64656C007D
:102CD000706572666F726D53696E676C655265647C
:102CE00043616C6962726174696F6E203078343050
:102CF00000706572666F726D53696E676C655265C0
:102D00006443616C6962726174696F6E20307830FF
:102D1000300053504144206572726F72002C0042A3
:102D200041434B20494E4954204552524F522100B5
:102D30004C45465420494E4954204552524F522149
:102D400000524947485420494E4954204552524F59
:042D5000522100000C
:107E0000112484B714BE81FFF0D085E080938100F7
:107E100082E08093C00088E18093C10086E0809377
:107E2000C20080E18093C4008EE0C9D0259A86E02C
:107E300020E33CEF91E0309385002093840096BBD3
:107E4000B09BFECF1D9AA8958150A9F7CC24DD24C4
:107E500088248394B5E0AB2EA1E19A2EF3E0BF2EE7
:107E6000A2D0813461F49FD0082FAFD0023811F036
:107E7000013811F484E001C083E08DD089C08234E0
:107E800011F484E103C0853419F485E0A6D080C0E4
:107E9000853579F488D0E82EFF2485D0082F10E0AE
:107EA000102F00270E291F29000F111F8ED06801E7
:107EB0006FC0863521F484E090D080E0DECF843638
:107EC00009F040C070D06FD0082F6DD080E0C81688
:107ED00080E7D80618F4F601B7BEE895C0E0D1E017
:107EE00062D089930C17E1F7F0E0CF16F0E7DF06D8
:107EF00018F0F601B7BEE89568D007B600FCFDCFD4
:107F0000A601A0E0B1E02C9130E011968C91119780
:107F100090E0982F8827822B932B1296FA010C0160
:107F200087BEE89511244E5F5F4FF1E0A038BF0790
:107F300051F7F601A7BEE89507B600FCFDCF97BE46
:107F4000E89526C08437B1F42ED02DD0F82E2BD052
:107F50003CD0F601EF2C8F010F5F1F4F84911BD097
:107F6000EA94F801C1F70894C11CD11CFA94CF0C13
:107F7000D11C0EC0853739F428D08EE10CD085E9AC
:107F80000AD08FE07ACF813511F488E018D01DD067
:107F900080E101D065CF982F8091C00085FFFCCF94
:107FA0009093C60008958091C00087FFFCCF809118
:107FB000C00084FD01C0A8958091C6000895E0E648
:107FC000F0E098E1908380830895EDDF803219F02E
:107FD00088E0F5DFFFCF84E1DECF1F93182FE3DFCA
:107FE0001150E9F7F2DF1F91089580E0E8DFEE27F6
:047FF000FF270994CA
:027FFE00040479
:00000001FF
