:100000000C945D000C9485000C9485000C94850084
:100010000C9485000C9485000C9485000C9485004C
:100020000C9485000C94CD0F0C9485000C948500E5
:100030000C9485000C9485000C9485000C9485002C
:100040000C94830F0C9485000C94510F0C942B0F7F
:100050000C9485000C9485000C9485000C9485000C
:100060000C9476100C9485000000000024002700FA
:100070002A0000000000250028002B0004040404CE
:100080000404040402020202020203030303030342
:10009000010204081020408001020408102001021F
:1000A00004081020000000080002010000030407FB
:1000B0000000000000000000951111241FBECFEFCA
:1000C000D8E0DEBFCDBF11E0A0E0B1E0E6E9FDE29F
:1000D00002C005900D92AC3AB107D9F723E0ACEA23
:1000E000B1E001C01D92A637B207E1F710E0CDE5FF
:1000F000D0E004C02197FE010E94B416CC35D10790
:10010000C9F70E941D120C94C9160C9400000895A2
:100110000895AF92BF92CF92DF92EF92FF920F932A
:100120001F93CF93DF936C017B018B01040F151F8D
:10013000EB015E01AE18BF08C017D10759F06991F5
:10014000D601ED91FC910190F081E02DC601099559
:10015000892B79F7C501DF91CF911F910F91FF9006
:10016000EF90DF90CF90BF90AF900895FC01538D3A
:10017000448D252F30E0842F90E0821B930B541781
:1001800010F0CF96089501970895FC01918D828D0E
:10019000981761F0A28DAE0FBF2FB11D5D968C91A7
:1001A000928D9F5F9F73928F90E008958FEF9FEFE6
:1001B0000895FC01918D828D981731F0828DE80FA2
:1001C000F11D858D90E008958FEF9FEF0895FC015C
:1001D000918D228D892F90E0805C9F4F821B910929
:1001E0008F739927089581EA92E00E94E70021E049
:1001F000892B09F420E0822F089580E090E0892B7C
:1002000029F00E94F30081110C9400000895FC0174
:10021000A48DA80FB92FB11DA35ABF4F2C91848D67
:1002200090E001968F739927848FA689B7892C93C4
:10023000A089B1898C91837080648C93938D848D17
:10024000981306C00288F389E02D80818F7D80831A
:100250000895EF92FF920F931F93CF93DF93EC01DA
:1002600081E0888F9B8D8C8D98131AC0E889F9895D
:10027000808185FF15C09FB7F894EE89FF89608360
:10028000E889F98980818370806480839FBF81E0E1
:1002900090E0DF91CF911F910F91FF90EF90089523
:1002A000F62E0B8D10E00F5F1F4F0F731127E02EFE
:1002B0008C8D8E110CC00FB607FCFACFE889F98936
:1002C000808185FFF5CFCE010E940701F1CFEB8D34
:1002D000EC0FFD2FF11DE35AFF4FF0829FB7F8940A
:1002E0000B8FEA89FB8980818062CFCFCF93DF9328
:1002F000EC01888D8823B9F0AA89BB89E889F9893E
:100300008C9185FD03C0808186FD0DC00FB607FC72
:10031000F7CF8C9185FFF2CF808185FFEDCFCE01A5
:100320000E940701E9CFDF91CF91089590E0FC0191
:10033000EC55FF4F2491FC01E057FF4F3491FC0135
:10034000E458FF4FE491EE23C9F0222339F0233023
:1003500001F1A8F4213019F1223029F1F0E0EE0F7B
:10036000FF1FEE58FF4FA591B4918FB7F894EC9111
:10037000611126C030953E233C938FBF08952730EE
:10038000A9F02830C9F0243049F7809180008F7D92
:1003900003C0809180008F7780938000DFCF84B589
:1003A0008F7784BDDBCF84B58F7DFBCF8091B0008C
:1003B0008F778093B000D2CF8091B0008F7DF9CF3E
:1003C0003E2BDACFCF93DF9390E0FC01E057FF4F55
:1003D000249184589F4FFC0184918823D1F090E0B0
:1003E000880F991FFC01E859FF4FA591B491FC01BA
:1003F000EE58FF4FC591D49161110EC09FB7F8948C
:100400008C91E22FE0958E238C932881E223E88360
:100410009FBFDF91CF9108958FB7F894EC91E22BB5
:10042000EC938FBFF6CF1F93CF93DF93182FEB0181
:1004300061E00E94E201209739F460E0812FDF91B2
:10044000CF911F910C949601CF3FD10511F461E03B
:10045000F5CFE12FF0E0EC55FF4FE491E33031F1BF
:1004600040F4E130B1F0E230E1F0C038D1057CF782
:10047000E4CFE73029F1E83059F1E430B1F7809169
:100480008000806280938000D0938B00C0938A00AC
:1004900004C084B5806884BDC7BDDF91CF911F9132
:1004A000089584B5806284BDC8BDF7CF8091800077
:1004B000806880938000D0938900C0938800EDCF3E
:1004C0008091B00080688093B000C093B300E5CF06
:1004D0008091B00080628093B000C093B400DDCF03
:1004E0003FB7F8948091050290910602A09107020F
:1004F000B091080226B5A89B05C02F3F19F00196C0
:10050000A11DB11D3FBFBA2FA92F982F8827BC016D
:10051000CD01620F711D811D911D42E0660F771F95
:10052000881F991F4A95D1F708958F929F92AF9295
:10053000BF92CF92DF92EF92FF924B015C010E943B
:1005400070026B017C010E9470026C197D098E099A
:100550009F09683E734081059105A8F321E0821A46
:100560009108A108B10888EEC80E83E0D81EE11CEE
:10057000F11C81149104A104B10429F7FF90EF90BC
:10058000DF90CF90BF90AF909F908F9008952FB73E
:10059000F89460910102709102028091030290919F
:1005A00004022FBF08954091020150910301641786
:1005B000750744F0409100015091010164177507DF
:1005C0000CF4AB019A0128503109B90137FF02C080
:1005D00061587F4F660F672F661F770B90E0FC0115
:1005E000EE0FFF1FE80FF91FE05FFD4F6183220F41
:1005F0002095228308952091DD01260F3327331F94
:1006000021323105ECF420917702FC0190E080E08A
:10061000243069F082E00895A091DD012191AC01C0
:1006200043545E4FA40FB52FB11D2C93019686172E
:1006300098F38091DD01680F6093DD0180E00895FB
:1006400081E008951092770281E080937602109203
:10065000510261E082E10E94960161E083E10E9423
:100660009601E9EBF0E080818E7F808380818D7F31
:10067000808388E48093B80085E48093BC0008956B
:10068000CF93DF9391E09093BC018823B9F0C091A0
:10069000B800D091BA008091BC008A7B8093BC00E6
:1006A00060E082E10E94960160E083E10E94960191
:1006B0000E942203D093BA00C093B800DF91CF917B
:1006C00008958F929F92AF92BF92CF92DF92EF9256
:1006D000FF920F931F93CF93DF93D091A002D1325B
:1006E00008F0D7C0182FC0919F020E9470026B01C2
:1006F0007C018091770281116BC082E08093770248
:10070000109376028FEF8093750210927402D0934B
:100710007302AFE7B2E0E3E5F2E080E0D81391C006
:100720001092520280915202CC0FC82BC0935202F9
:1007300080915102813009F088C0109251020E94CC
:1007400070026B017C01809152028093BB0080910A
:10075000790290917A02A0917B02B0917C02892B60
:100760008A2B8B2BA1F00E947002009179021091CC
:100770007A0220917B0230917C026C197D098E09EE
:100780009F09061717072807390708F442C0809108
:10079000BC0083FDD8CF85EC8093BC000E94700222
:1007A0006B017C0180917702823009F450C0809106
:1007B00075028F3F09F46FC080917502803209F491
:1007C0006CC080917502803309F469C084E026C052
:1007D0008091790290917A02A0917B02B0917C0283
:1007E000892B8A2B8B2B09F484CF0E947002809076
:1007F000790290907A02A0907B02B0907C026C19F2
:100800007D098E099F0986169706A806B90608F085
:1008100070CF809178020E94400385E010927E02A2
:100820001092A00210927D02DF91CF911F910F9143
:10083000FF90EF90DF90CF90BF90AF909F908F9000
:1008400008959D9191938F5F69CF85EEA5CF80919B
:10085000790290917A02A0917B02B0917C02892B5F
:100860008A2B8B2B09F49ECF0E9470020091790293
:1008700010917A0220917B0230917C026C197D09E3
:100880008E099F09061717072807390708F08ACF2E
:10089000C0CF81E0C3CF80E0C1CF82E0BFCF83E093
:1008A000BDCFCF92DF92EF92FF920F931F93CF9322
:1008B000DF93D82FC62F613208F098C00E947002D3
:1008C0006B017C018091770281116BC081E0809384
:1008D0007702809376029FEF9093750210927402D4
:1008E0009C0F909373028093520280915202DD0F0D
:1008F000D82BD093520280915102813009F078C0F8
:10090000109251020E9470026B017C018091520290
:100910008093BB008091790290917A02A0917B0232
:10092000B0917C02892B8A2B8B2BA1F00E94700244
:100930000091790210917A0220917B0230917C0221
:100940006C197D098E099F090617170728073907B3
:1009500008F448C08091BC0083FDD8CF85EC80931B
:10096000BC000E9470026B017C0180917702813093
:1009700009F440C0809174028C1710F4C091740285
:10098000E3E5F2E0A1E3B2E080E08C1355C08C2FE8
:10099000DF91CF911F910F91FF90EF90DF90CF905B
:1009A00008958091790290917A02A0917B02B09192
:1009B0007C02892B8A2B8B2B09F484CF0E94700236
:1009C0000091790210917A0220917B0230917C0291
:1009D0006C197D098E099F09061717072807390723
:1009E00008F070CF809178020E944003C0E0CFCF22
:1009F00085EEB5CF8091790290917A02A0917B0229
:100A0000B0917C02892B8A2B8B2B09F4AECF0E94EC
:100A100070020091790210917A0220917B0230914C
:100A20007C026C197D098E099F0906171707280794
:100A3000390708F09ACFD6CF91919D938F5FA5CFBC
:100A40000895E091300280912F02E81730F4F0E031
:100A5000EF5CFD4F808190E008958FEF9FEF089548
:100A60009091300280912F022FEF3FEF981748F4BA
:100A7000E92FF0E0EF5CFD4F208130E09F5F909325
:100A80003002C901089580912F0290913002891B94
:100A9000990B0895CF92DF92EF92FF920F931F93DD
:100AA000CF93DF937C01CB018A0120917D02222329
:100AB00089F0EB016B01C40ED51ECC15DD0569F084
:100AC0006991D701ED91FC910190F081E02DC70172
:100AD0000995F3CF642F0E94FB02C801DF91CF91EB
:100AE0001F910F91FF90EF90DF90CF900895CF93DB
:100AF000DF931F92CDB7DEB7698320917D02222359
:100B0000F9F02091A002203258F021E030E0FC0101
:100B10003383228390E080E00F90DF91CF9108959E
:100B200080917E02E82FF0E0E158FD4F998190839B
:100B30008F5F80937E028093A00281E090E0ECCFF3
:100B400061E0CE0101960E94FB02F7CF90E080E0C9
:100B500008950F931F93CF93DF93EC01142F052F6C
:100B600089819A812B8131E030937D0220939F020D
:100B700010927E021092A002DC01ED91FC91019096
:100B8000F081E02D099589819A81DC01ED91FC913C
:100B90000190F081E02D602F099589819A81DC0117
:100BA000ED91FC910190F081E02D612F099581E09C
:100BB0000E9461038883DF91CF911F910F91089567
:100BC0001F93CF93DF93EC01142F89819A812B819E
:100BD00031E030937D0220939F0210927E021092AA
:100BE000A002DC01ED91FC910190F081E02D0995CE
:100BF00089819A81DC01ED91FC910190F081E02DD9
:100C0000612F099581E00E9461038883DF91CF9174
:100C10001F9108950F931F93CF93DF938C01EB01E6
:100C2000181619062CF5BC018F3F910519F014F028
:100C30006FEF70E085E00E94130270E060E086E0F4
:100C40000E9413021C161D0614F5BE01CF3FD105EC
:100C500019F014F06FEF70E089E00E94130270E069
:100C600060E08AE0DF91CF911F910F910C94130205
:100C700070E060E085E00E94130266277727601B22
:100C8000710B02301F4FDCF66FEF70E0D8CF70E0D1
:100C900060E089E00E941302662777276C1B7D0BBA
:100CA000C230DF4FF4F66FEF70E0DBCF1092B70188
:100CB0001092B6010E94C7027093B5016093B4010F
:100CC00008950F931F93CF93DF938C01D0E0C0E082
:100CD00061E08DE00E94960162E370E080E090E0C8
:100CE0000E94950260E08DE00E94960164E670E04B
:100CF00080E090E00E94950221960C171D0741F7B5
:100D0000DF91CF911F910F910895FC010190002078
:100D1000E9F73197AF01481B590BBC0181EA92E01A
:100D20000C9489008F929F92AF92BF920F931F9362
:100D3000CF93DF93CDB7DEB7A1970FB6F894DEBFA0
:100D40000FBECDBF19A2423008F44AE08E010F5DFC
:100D50001F4F842E912CB12CA12CA50194010E942F
:100D60007F16E62FB901CA01EA30F4F4E05DD8013C
:100D7000EE938D01232B242B252B79F790E080E037
:100D8000109719F0CD010E948506A1960FB6F89430
:100D9000DEBF0FBECDBFDF91CF911F910F91BF90EE
:100DA000AF909F908F900895E95CE1CFCF93DF9350
:100DB0000E948506EC0188E291E00E9485068C0F76
:100DC0009D1FDF91CF910895CF92DF92EF92FF9216
:100DD000CF93DF936C01990FEE08FF08F7FE19C05F
:100DE0006DE281EA92E00E942901EC0166277727F3
:100DF000CB016C197D098E099F094AE00E94920679
:100E00008C0F9D1FDF91CF91FF90EF90DF90CF90DF
:100E100008954AE0C701B601DF91CF91FF90EF90AE
:100E2000DF90CF900C949206CF93DF93EC0141E0DA
:100E300060E80E94E00541E06FEFCE010E94E0050E
:100E400040E060E0CE010E94E005498561E9CE0105
:100E50000E94E00541E060E0CE010E94E00540E034
:100E60006FEFCE010E94E00540E060E8CE010E94F5
:100E7000E00542E060E0CE01DF91CF910C94E00507
:100E80000F931F93CF93DF93EC0189819A812B817C
:100E900031E030937D0220939F0210927E021092E7
:100EA000A002DC01ED91FC910190F081E02D09950B
:100EB00081E00E946103888362E08B810E9451047B
:100EC0001092300280932F0289819A81DC01ED918A
:100ED000FC910284F385E02D099500E0182F8981AB
:100EE0009A81DC01ED91FC910284F385E02D099556
:100EF000802B912BDF91CF911F910F910895CF936C
:100F0000DF93EC0189819A812B8131E030937D025E
:100F100020939F0210927E021092A002DC01ED91BC
:100F2000FC910190F081E02D099581E00E94610320
:100F3000888361E08B810E9451041092300280937B
:100F40002F0289819A81DC01ED91FC910284F38565
:100F5000E02D0995DF91CF910895CF93DF93EC01B8
:100F6000462F416060E00E94E0050E94C70278873A
:100F70006F8363E1CE010E947F07877089F48C81C3
:100F80009D81892BB1F30E94C7022F813885621B96
:100F9000730B8C819D818617970758F780E00BC0F3
:100FA00041E06BE0CE010E94E00540E060E0CE0150
:100FB0000E94E00581E0DF91CF9108958F929F928A
:100FC000AF92BF92CF92DF92EF92FF920F931F9357
:100FD000CF93DF936C017B01EA0160E50E947F07FC
:100FE0008F5F880F90E09983888366E4C6010E9432
:100FF0007F07082F10E00F5F1F4F1D830C83A88110
:10100000B0E020E03FE24AE350E00E94A1166C50BD
:101010007E4F8F4F9F4F38EE832E33E0932EA12CBF
:10102000B12CA50194010E947F16D8010E94AC1634
:101030006C507E4F8F4F9F4FA50194010E947F16E9
:101040002A873B874C875D8761E5C6010E94400780
:101050008C01112702C0000F111F9A95E2F70F5F54
:101060001F4F1F830E83A881B0E020E03FE24AE3D8
:1010700050E00E94A1166C507E4F8F4F9F4FA501EC
:1010800094010E947F16D8010E94A1166C507E4FD9
:101090008F4F9F4FA50194010E947F162E873F8797
:1010A000488B598B60E7C6010E947F078F5F880FCE
:1010B00090E09B838A8361E7C6010E9440079C0100
:1010C000992702C0880F991F3A95E2F701969987F0
:1010D0008887F7012381222331F02E813F81821BF3
:1010E000930B99878887AA81B0E020E03FE24AE32A
:1010F00050E00E94A1166C507E4F8F4F9F4F28EEFC
:10110000C22E23E0D22EE12CF12CA70196010E94E1
:101110007F16A885B9850E94A1166C507E4F8F4F0F
:101120009F4FA70196010E947F162A8B3B8B4C8B09
:101130005D8BDF91CF911F910F91FF90EF90DF902A
:10114000CF90BF90AF909F908F900895CF93DF93F3
:10115000EB0161E00E947F0784FB992790F9988357
:1011600083FB992790F99A8382FB992790F99983B9
:1011700086FB992790F99B83881F8827881F8C837B
:10118000DF91CF9108953F924F925F926F927F923D
:101190008F929F92AF92BF92CF92DF92EF92FF9287
:1011A0000F931F93CF93DF93CDB7DEB7A1970FB601
:1011B000F894DEBF0FBECDBF8C0160EC0E947F07AC
:1011C0008E3EA9F08BE291E00E94850660ECC8019A
:1011D0000E947F07682F70E090E080E04AE00E9464
:1011E000920688E291E00E948506F12C8EC469E89F
:1011F000C8010E947F07482F416069E8C8010E942A
:10120000E00540E068E8C8010E94E00541E060E8D0
:10121000C8010E94E00541E06FEFC8010E94E005AF
:1012200040E060E0C8010E94E00561E9C8010E9459
:101230007F07D80119968C9341E060E0C8010E94B5
:10124000E00540E06FEFC8010E94E00540E060E883
:10125000C8010E94E00560E6C8010E947F07482F90
:10126000426160E6C8010E94E00540E250E064E4AB
:10127000C8010E94A9054FEF61E0C8010E94E00586
:1012800041E060E8C8010E94E00541E06FEFC8015D
:101290000E94E00540E060E0C8010E94E00546E0F1
:1012A0006FEFC8010E94E00563E8C8010E947F0754
:1012B000482F446063E8C8010E94E00547E06FEFF3
:1012C000C8010E94E00541E061E8C8010E94E00514
:1012D00041E060E8C8010E94E0054BE664E9C8010E
:1012E0000E94E00540E063E8C8010E94E0050E941A
:1012F000C702F8017087678363E8C8010E947F070F
:10130000811117C0D80114968D919C91892BA1F35E
:101310000E94C702F80127813085621B730B84810C
:1013200095818617970740F78CE791E00E94D606D3
:101330005CCF41E063E8C8010E94E00562E9C801B2
:101340000E947F07D82E40E061E8C8010E94E005B6
:1013500046E06FEFC8010E94E00563E8C8010E9403
:101360007F07482F4B7F63E8C8010E94E00541E0FA
:101370006FEFC8010E94E00541E060E0C8010E94F3
:10138000E00540E06FEFC8010E94E00540E060E842
:10139000C8010E94E005D80111968D919C91129789
:1013A00013962C9131E030937D0220939F0210928E
:1013B0007E021092A002DC01ED91FC910190F0817F
:1013C000E02D60EB099581E00E946103F8018083C4
:1013D00066E083810E9451041092300280932F02B4
:1013E0007E01F7E1EF0EF11C3701B7E0CB2ECA9476
:1013F000CC2079F0D80111968D919C91DC01ED9172
:10140000FC910284F385E02D0995F30181933F015E
:10141000EECF41E06FEFC8010E94E00540E06FE4CD
:10142000C8010E94E0054CE26EE4C8010E94E0059C
:1014300040E06FEFC8010E94E00544EB66EBC80195
:101440000E94E005BCE0D7FEB0E0A0E090E061E0E3
:1014500070E08D2D8F77492F46954695469550E043
:10146000F701E40FF51F2081F92FF770DF2E9B178E
:1014700010F08A1339C0F701E40FF51FAB0101C06A
:10148000440FDA94EAF74095242320839F5F90333A
:1014900011F7D80111968D919C91129713962C916A
:1014A00031E030937D0220939F0210927E021092D1
:1014B000A002DC01ED91FC910190F081E02D60EB48
:1014C0000995A7E0DA2EDA94DD20C1F0F8018181D8
:1014D0009281D7016D917D01DC01ED91FC9101902C
:1014E000F081E02D0995EFCF30E002C035952795CA
:1014F000FA95E2F720FFCACFAF5FC8CF81E00E9424
:101500006103F801808341E06FEFC8010E94E005AC
:1015100040E060E0C8010E94E00540E06FEFC801D4
:101520000E94E00540E069E0C8010E94E00540E05B
:1015300060E1C8010E94E00540E061E1C8010E944D
:10154000E00541E064E2C8010E94E0054FEF65E27A
:10155000C8010E94E00540E065E7C8010E94E0057F
:1015600041E06FEFC8010E94E0054CE26EE4C80163
:101570000E94E00540E068E4C8010E94E00540E206
:1015800060E3C8010E94E00540E06FEFC8010E94DF
:10159000E00549E060E3C8010E94E00540E064E541
:1015A000C8010E94E00544E061E3C8010E94E00533
:1015B00043E062E3C8010E94E00543E860E4C8013B
:1015C0000E94E00545E266E4C8010E94E00540E0B3
:1015D00060E6C8010E94E00540E067E2C8010E94A1
:1015E000E00546E060E5C8010E94E00540E061E5F5
:1015F000C8010E94E00546E962E5C8010E94E005D5
:1016000048E066E5C8010E94E00540E367E5C801DF
:101610000E94E00540E061E6C8010E94E00540E06C
:1016200062E6C8010E94E00540E064E6C8010E944D
:10163000E00540E065E6C8010E94E00540EA66E694
:10164000C8010E94E00541E06FEFC8010E94E0057B
:1016500042E362E2C8010E94E00544E167E4C80198
:101660000E94E0054FEF69E4C8010E94E00540E0F8
:101670006AE4C8010E94E00540E06FEFC8010E94E3
:10168000E0054AE06AE7C8010E94E00540E06BE738
:10169000C8010E94E00541E268E7C8010E94E00538
:1016A00041E06FEFC8010E94E00544E363E2C80136
:1016B0000E94E00540E062E4C8010E94E0054FEFAF
:1016C00064E4C8010E94E00546E265E4C8010E94A6
:1016D000E00545E066E4C8010E94E00540E460E4FE
:1016E000C8010E94E00546E06EE0C8010E94E005E6
:1016F0004AE160E2C8010E94E00540E463E4C801F9
:101700000E94E00540E06FEFC8010E94E00543E061
:1017100064E3C8010E94E00544E465E3C8010E9457
:10172000E00541E06FEFC8010E94E00544E061E39D
:10173000C8010E94E00549E06BE4C8010E94E00591
:1017400045E06CE4C8010E94E00544E06DE4C80196
:101750000E94E00540E06FEFC8010E94E00540E014
:1017600064E4C8010E94E00540E265E4C8010E940B
:10177000E00548E067E4C8010E94E00548E268E44B
:10178000C8010E94E00540E067E6C8010E94E0054C
:1017900044E060E7C8010E94E00541E061E7C8015C
:1017A0000E94E0054EEF62E7C8010E94E00540E0BC
:1017B00066E7C8010E94E00540E067E7C8010E94B3
:1017C000E00541E06FEFC8010E94E00541E06DE0F7
:1017D000C8010E94E00540E06FEFC8010E94E005EB
:1017E00041E060E8C8010E94E00548EF61E0C801FF
:1017F0000E94E00541E06FEFC8010E94E00541E072
:101800006EE8C8010E94E00541E060E0C8010E9466
:10181000E00540E06FEFC8010E94E00540E060E8AD
:10182000C8010E94E00544E06AE0C8010E94E005AA
:1018300064E8C8010E947F07482F4F7E64E8C80112
:101840000E94E00541E06BE0C8010E94E005BE0196
:10185000635E7F4FC8010E94A608AE014F5F5F4FD5
:10186000BE01635E7F4FC8010E94DE078D8D882315
:1018700009F4FAC08B859C85AD85BE858C57924F47
:10188000AF4FBF4F2F8D222309F4F3C04B855C85EA
:101890006D857E854E545D4F6F4F7F4F440F551FB2
:1018A000661F771F840F951FA61FB71F28A122232D
:1018B00061F04F85588969897A894C565D4F6F4F21
:1018C0007F4F840F951FA61FB71F29A1222361F008
:1018D0004B895C896D897E894A5D5D4F6F4F7F4F73
:1018E000840F951FA61FB71FF80182879387A487CF
:1018F000B58748EE61E0C8010E94E005D8011A965C
:10190000CD90DD90ED90FC901D97B0E2CB16BEE43B
:10191000DB06E104F10408F4DAC0BE01635E7F4F28
:10192000C8010E94A608AE014F5F5F4FBE01635E13
:101930007F4FC8010E94DE078D8D882309F4A6C061
:101940008B859C85AD85BE858C57924FAF4FBF4F21
:101950002F8D222309F49FC04B855C856D857E8584
:101960004E545D4F6F4F7F4F440F551F661F771FBB
:10197000840F951FA61FB71F38A0332061F04F8535
:10198000588969897A894C565D4F6F4F7F4F840F14
:10199000951FA61FB71F29A1222309F498C04C0147
:1019A0005D01E6E28E0EE2E09E1EA11CB11CC81491
:1019B000D904EA04FB0408F48AC0AB81B0E020E05B
:1019C0003FE24AE350E00E94A1162B013C01F4EFF4
:1019D0004F0EF1E05F1E611C711CA70196012819D2
:1019E00039094A095B09A8EEB3E00E94A1164B0130
:1019F0005C01C301B20120ED37E040E050E00E94FD
:101A00007F16820E931EA41EB51EC301B20128EEDE
:101A100033E040E050E00E947F16C501B4010E940F
:101A20007F16332031F08F819885280F391F411D93
:101A3000511D211531054105510509F47FC0BA0139
:101A4000A901415051096109710990E080E02A0122
:101A50003B01442445284628472851F1769567954F
:101A6000579547950196F3CF86E39BE0A0E0B0E061
:101A700009CF2E8D222309F419CF4B855C856D8506
:101A80007E854C565D4F6F4F7F4F0CCF86E39BE0BA
:101A9000A0E0B0E05DCF2E8D222309F46DCF4B8501
:101AA0005C856D857E854C565D4F6F4F7F4F60CF57
:101AB000982F8827482B592B61E7C8010E94A90558
:101AC000D8011A96CD92DD92ED92FC921D9741E0DD
:101AD00061E0C8010E94E00560E4C8010E94AD0712
:101AE000F82E8AE391E0FF2071F042E061E0C80146
:101AF0000E94E00560E0C8010E94AD07F82E811148
:101B000020C08BE591E00E94D6068F2DA1960FB6DE
:101B1000F894DEBF0FBECDBFDF91CF911F910F9123
:101B2000FF90EF90DF90CF90BF90AF909F908F90FD
:101B30007F906F905F904F903F90089550E040E00D
:101B4000BBCF48EE61E0C8010E94E005DECF0F93F5
:101B50001F93CF93DF93EC010E94C70278876F83B6
:101B600063E1CE010E947F078770C9F48C819D815B
:101B7000892BB1F30E94C7022F813885621B730B3A
:101B80008C819D818617970758F781E08E830FEF30
:101B90001FEFC801DF91CF911F910F9108956EE162
:101BA000CE010E9440078C0141E06BE0CE010E9413
:101BB000E005EFCF2F923F924F925F926F927F920C
:101BC0008F929F92AF92BF92CF92DF92EF92FF924D
:101BD0000F931F93CF93DF93EC010E94C702709382
:101BE000BB016093BA0189E593E00E94A70D909331
:101BF0002E0280932D028BE493E00E94A70D5C01DE
:101C000090932C0280932B0280902D0290902E02B4
:101C10008C01081919091093B9010093B80180913A
:101C2000B6019091B701B801681B790B072E000C23
:101C3000880B990B0E94861520E030E04AE754E4B7
:101C40000E9412166B017C016091BA017091BB0178
:101C50008091B4019091B501681B790B90E080E010
:101C60000E9484159B01AC01C701B6010E94DC14DF
:101C70002B013C014092B0015092B1016092B2013F
:101C80007092B3011501280C391C8EE5281A81E0E9
:101C9000380A3092AF012092AE01B801012E000C3B
:101CA000880B990B0E94861520E030E040E450E458
:101CB0000E94121620E030E040E251E40E94DC1461
:101CC0006B017C01A3019201C301B2010E94701457
:101CD00020E030E040EA51E40E94DC149B01AC01BA
:101CE000C701B6010E9470140E944E156B017093DB
:101CF000AD016093AC0121E030E017FF02C02FEF8F
:101D00003FEF229EC001239E900D329E900D112424
:101D1000880F991F1C161D060CF05CC08C0D9D1DB4
:101D20009C012C0F3D1FBE01681B790BC9010E944D
:101D30000A06C4010E94E40687E891E00E94850635
:101D4000C5010E94E40687E891E00E948506C8016B
:101D50000E94E40687E891E00E948506C301B20173
:101D60000E944E15CB010E94E40687E891E00E9494
:101D70008506C1010E94E40687E891E00E9485067D
:101D8000C6010E94E40688E291E00E9485068091E7
:101D9000B8019091B9019093B7018093B6018091F9
:101DA000BA019091BB019093B5018093B401DF918A
:101DB000CF911F910F91FF90EF90DF90CF90BF9048
:101DC000AF909F908F907F906F905F904F903F90DB
:101DD0002F900895B601681B790B9E01261B370BC7
:101DE0006C0F7D1FA3CF85ED8093BC00809179029D
:101DF00090917A02A0917B02B0917C020796A11D7E
:101E0000B11D23E0B695A795979587952A95D1F7AB
:101E10002091BC0024FD03C01092770208954091E8
:101E2000790250917A0260917B0270917C02452B7D
:101E3000462B472B69F30097A105B10541F02AE233
:101E40002A95F1F700C00197A109B109E1CF80916E
:101E500078020C9440031F920F920FB60F92112438
:101E60002F933F934F935F936F937F938F939F93A2
:101E7000AF93BF93EF93FF9381EA92E00E94070133
:101E8000FF91EF91BF91AF919F918F917F916F9152
:101E90005F914F913F912F910F900FBE0F901F9028
:101EA00018951F920F920FB60F9211242F938F93B4
:101EB0009F93EF93FF93E091B102F091B202808182
:101EC000E091B702F091B80282FD1BC09081809131
:101ED000BA028F5F8F732091BB02821741F0E091AD
:101EE000BA02F0E0EF55FD4F958F8093BA02FF9153
:101EF000EF919F918F912F910F900FBE0F901F9098
:101F000018958081F4CF1F920F920FB60F92112473
:101F10002F933F938F939F93AF93BF938091010231
:101F200090910202A0910302B0910402309100024C
:101F300023E0230F2D3758F50196A11DB11D2093E5
:101F400000028093010290930202A0930302B093D7
:101F500004028091050290910602A0910702B091BF
:101F600008020196A11DB11D8093050290930602FF
:101F7000A0930702B0930802BF91AF919F918F91F8
:101F80003F912F910F900FBE0F901F90189526E84C
:101F9000230F0296A11DB11DD2CF1F920F920FB633
:101FA0000F9211242F933F934F935F936F937F93DF
:101FB0008F939F93AF93BF93EF93FF9380910D0205
:101FC0008F5F80930D02E0910E0220910D028E2F03
:101FD00090E0FC01EE0FFF1FE80FF91FE05FFD4FDF
:101FE0008181E0910E0282131DC08E2F90E0FC01D2
:101FF000EE0FFF1FE80FF91FE05FFD4F8281809316
:10200000B200FF91EF91BF91AF919F918F917F911E
:102010006F915F914F913F912F910F900FBE0F9055
:102020001F90189520910D028E2F90E0FC01EE0F6D
:10203000FF1FE80FF91FE05FFD4F8181821708F74E
:10204000E0910E028E2F90E0FC01EE0FFF1FE80FD3
:10205000F91FE05FFD4F808185FF10C0E0910E0207
:102060008E2F90E0FC01EE0FFF1FE80FF91FE05FDD
:10207000FD4F808160E08F710E94960180910E0279
:102080008F5F80930E0210920D021092B200809129
:102090000E02882319F180910E028930F8F4E09144
:1020A0000E028E2F90E0FC01EE0FFF1FE80FF91FCC
:1020B000E05FFD4F808185FFA4CFE0910E028E2F5F
:1020C00090E0FC01EE0FFF1FE80FF91FE05FFD4FEE
:1020D000808161E08F710E94960193CF80910E0202
:1020E000893008F48ECF10920E028BCF1F920F9280
:1020F0000FB60F9211242F933F934F935F936F93DB
:102100007F938F939F93AF93BF93EF93FF938091B0
:10211000B900887F803609F44AC0F0F5883209F4A6
:10212000A7C018F5803109F49BC0B8F4882309F4DE
:10213000F9C0883009F494C0FF91EF91BF91AF913D
:102140009F918F917F916F915F914F913F912F91CF
:102150000F900FBE0F901F901895883109F488C01A
:10216000803251F78093750214C0803409F49DC009
:1021700040F48033B9F38833F9F68093750285EC27
:10218000B0C0803509F485C0883509F496C088341C
:1021900099F60E94F30ED0CF883909F48CC038F537
:1021A000883729F050F4883611F0803729F683E01B
:1021B000809377021092FF0157C0883809F47BC0E2
:1021C000803919F0803809F0B7CF8091FF01803253
:1021D00008F071C0E091FF0181E08E0F8093FF0154
:1021E0008091BB00F0E0E152FE4F80833DC0803B18
:1021F00039F0E0F4803A09F479C0883A09F09CCFCC
:1022000084E0809377021092DE011092DD01E0916C
:102210000B02F0910C0209958091DD0181110FC034
:1022200081E08093DD011092BD0109C0803C09F47A
:10223000A6CF883C09F4A3CF883B09F07DCFE0917D
:10224000DE0181E08E0F8093DE01F0E0E354FE4F6B
:1022500080818093BB009091DE018091DD0129C0D7
:10226000809152028093BB0085EC8093BC0064CFC8
:102270009091740280917302981758F5E09174025E
:1022800081E08E0F80937402F0E0ED5AFD4F808163
:10229000E9CFE091740281E08E0F80937402809107
:1022A000BB00F0E0ED5AFD4F808390917402809165
:1022B00073029817C8F285E8D8CFE091740281E0E4
:1022C0008E0F809374028091BB00F0E0ED5AFD4FB9
:1022D00080838091760281115CCF81E080935102EE
:1022E00084EA8093BC001092770226CF85EC80931D
:1022F000BC00109277028091FF01803230F4E091AF
:10230000FF01F0E0E152FE4F10826091FF0170E0AA
:10231000E0910902F0910A028FED91E00995109287
:10232000FF010ACF1092750234CF1092A4021092CE
:10233000A30288EE93E0A0E0B0E08093A502909322
:10234000A602A093A702B093A80228E031E0309340
:10235000A2022093A10225EC30E03093AE0220933C
:10236000AD0224EC30E03093B0022093AF0220ECB9
:1023700030E03093B2022093B10221EC30E0309390
:10238000B4022093B30222EC30E03093B6022093E3
:10239000B50226EC30E03093B8022093B7021092D9
:1023A000BA021092BB021092BC021092BD021092AF
:1023B0004103109240038093420390934303A09300
:1023C0004403B09345038AE191E090933F038093E7
:1023D0003E0380914A03883068F58F5F80934A03FB
:1023E000809375032EE333E03093690320936803F1
:1023F00089E280936A0310926C0310926B0310922F
:102400006D0330935B0320935A0380935C03109217
:102410005E0310925D0310925F0330934D0320938F
:102420004C0380934E031092500310924F0310926E
:102430005103089510927503D5CF789484B58260C6
:1024400084BD84B5816084BD85B5826085BD85B558
:10245000816085BD80916E00816080936E001092D6
:102460008100809181008260809381008091810051
:1024700081608093810080918000816080938000E2
:102480008091B10084608093B1008091B000816040
:102490008093B00080917A00846080937A0080916C
:1024A0007A00826080937A0080917A0081608093C4
:1024B0007A0080917A00806880937A001092C1003F
:1024C000E091B102F091B20282E08083E091AD022E
:1024D000F091AE021082E091AF02F091B00280E183
:1024E00080831092B902E091B502F091B60286E0C5
:1024F0008083E091B302F091B40280818061808397
:10250000E091B302F091B402808188608083E09111
:10251000B302F091B402808180688083E091B302BD
:10252000F091B40280818F7D8083109230021092EE
:102530002F0210927E021092A0020E94220387E8CE
:1025400090E090930C0280930B0288E890E09093C7
:102550000A028093090261E087E00E94E20161E0E3
:1025600088E00E94E20160E087E00E94960160E05E
:1025700088E00E94960164E670E080E090E00E94AE
:10258000950260E087E00E94E20162E370E080E093
:1025900090E00E94950289E593E00E94C3088111B2
:1025A00009C089E891E00E94850683E090E00E94DE
:1025B0006106F1CF84EF91E090935E0380935D0319
:1025C00089E593E00E94140743E36AE889E593E014
:1025D0000E94E00583E380935C0360E088E00E9452
:1025E000E20162E370E080E090E00E9495028BE4FB
:1025F00093E00E94C308811109C08AE991E00E941A
:10260000850683E090E00E946106F1CF84EF91E0BF
:102610009093500380934F038BE493E00E94140740
:1026200045E36AE88BE493E00E94E00585E380934C
:102630004E0385E090E00E94610681E090E00E94F8
:10264000610689E593E00E94A70D90932E02809386
:102650002D028BE493E00E94A70D90932C028093AF
:102660002B020E94560680912B0290912C02209101
:102670002D0230912E02820F931F883B91402CF443
:102680008AE69FEF0E94DA0DEECF81E090E00E9493
:1026900061066AE67FEF8AE69FEF0E940A0668E518
:1026A00072E080E090E00E94950270E060E090E0CF
:1026B00080E00E940A0683E090E00E9461066AE6DC
:1026C0007FEF86E990E00E940A0662E573E080E011
:1026D00090E00E94950270E060E090E080E00E944F
:1026E0000A0666E970E086E990E00E940A0689E53C
:1026F00093E00E94A70D90932E0280932D028BE40D
:1027000093E00E94A70D90932C0280932B022091BE
:102710002D0230912E02820F931F893B91403CF78E
:102720000E94C7026B017C010E945606EE24FF2422
:102730000E94C7026C197D098E099F09683E73408B
:102740008105910528F486E990E00E94DA0DF0CF2A
:1027500070E060E090E080E00E940A0680E292E093
:10276000909303018093020180E699E09093010128
:102770008093000180910F0281111FC0C1E06CEDB8
:1027800075E08C2F0E94D302CF5FC930C1F78EE372
:102790008093110210920E0210920D02109270009E
:1027A0001092B00082E08093B1001092B20081E0FC
:1027B00087BB8093700080930F02809175038823FC
:1027C000A1F061E082E00E94E201E09175038E2FAA
:1027D00090E0FC01EE0FFF1FE80FF91FE05FFD4FD7
:1027E0008081807E826080628083809175039FEF0C
:1027F000980F983020F460E272E00E94D302E091DA
:102800007503D0E0C0E0EE23C1F08E2F90E0FC0114
:10281000EE0FFF1FE80FF91FE05FFD4F8281CFEF42
:10282000D0E0C81BD109D595C795818120E8829F4A
:10283000C0011124C80FD91F2896C13486E0D807DB
:102840008CF0809175039FEF980F983018F4BE01BB
:102850000E94D30261E070E080E090E00E94950267
:102860002196EBCF6AE070E080E090E00E94950254
:10287000E09175038E2F90E0FC01EE0FFF1FE80F33
:10288000F91FE05FFD4F80818F7D80830E94C7022A
:102890006B017C010E945606EE24FF240E94C702B1
:1028A0006C197D098E099F09683E73408105910569
:1028B00028F486E990E00E94DA0DF0CF70E060E045
:1028C00090E080E00E940A06C0E0D0E02097F1F39B
:1028D0000E94F3008823D1F30E940000F7CF5058E4
:1028E000BB27AA270E9487140C94D8150E94CA15EA
:1028F00038F00E94D11520F039F49F3F19F426F4E6
:102900000C94C7150EF4E095E7FB0C94C115E92F64
:102910000E94E91558F3BA176207730784079507F1
:1029200020F079F4A6F50C940B160EF4E0950B2E1E
:10293000BA2FA02D0B01B90190010C01CA01A00111
:102940001124FF27591B99F0593F50F4503E68F16C
:102950001A16F040A22F232F342F4427585FF3CFAD
:10296000469537952795A795F0405395C9F77EF47E
:102970001F16BA0B620B730B840BBAF09150A1F0C7
:10298000FF0FBB1F661F771F881FC2F70EC0BA0F4D
:10299000621F731F841F48F4879577956795B795D5
:1029A000F7959E3F08F0B0CF9395880F08F09927D0
:1029B000EE0F9795879508950E94F0140C94D81502
:1029C0000E94D11558F00E94CA1540F029F45F3FCB
:1029D00029F00C94C11551110C940C160C94C715C8
:1029E0000E94E91568F39923B1F3552391F3951BE0
:1029F000550BBB27AA2762177307840738F09F5F20
:102A00005F4F220F331F441FAA1FA9F335D00E2E8C
:102A10003AF0E0E832D091505040E695001CCAF7F9
:102A20002BD0FE2F29D0660F771F881FBB1F2617BC
:102A300037074807AB07B0E809F0BB0B802DBF0193
:102A4000FF2793585F4F3AF09E3F510578F00C9462
:102A5000C1150C940C165F3FE4F3983ED4F38695B1
:102A600077956795B795F7959F5FC9F7880F911D83
:102A70009695879597F90895E1E0660F771F881F6F
:102A8000BB1F621773078407BA0720F0621B730B22
:102A9000840BBA0BEE1F88F7E09508950E94551538
:102AA0006894B1110C940C1608950E94F11588F0E9
:102AB0009F5798F0B92F9927B751B0F0E1F0660F02
:102AC000771F881F991F1AF0BA95C9F714C0B13043
:102AD00091F00E940B16B1E008950C940B16672F2D
:102AE000782F8827B85F39F0B93FCCF38695779572
:102AF0006795B395D9F73EF490958095709561955B
:102B00007F4F8F4F9F4F0895E89409C097FB3EF485
:102B100090958095709561957F4F8F4F9F4F99232A
:102B2000A9F0F92F96E9BB279395F69587957795A8
:102B30006795B795F111F8CFFAF4BB0F11F460FF68
:102B40001BC06F5F7F4F8F4F9F4F16C0882311F0C0
:102B500096E911C0772321F09EE8872F762F05C0D4
:102B6000662371F096E8862F70E060E02AF09A956F
:102B7000660F771F881FDAF7880F9695879597F964
:102B8000089597F99F6780E870E060E008959FEFEF
:102B900080EC089500240A941616170618060906F4
:102BA000089500240A9412161306140605060895C3
:102BB000092E0394000C11F4882352F0BB0F40F44B
:102BC000BF2B11F460FF04C06F5F7F4F8F4F9F4F8B
:102BD000089557FD9058440F551F59F05F3F71F00D
:102BE0004795880F97FB991F61F09F3F79F0879574
:102BF0000895121613061406551FF2CF4695F1DFFD
:102C000008C0161617061806991FF1CF869571058C
:102C1000610508940895E894BB2766277727CB01C0
:102C200097F908950E9425160C94D8150E94CA158C
:102C300038F00E94D11520F0952311F00C94C115A5
:102C40000C94C71511240C940C160E94E91570F30E
:102C5000959FC1F3950F50E0551F629FF001729F41
:102C6000BB27F00DB11D639FAA27F00DB11DAA1F50
:102C7000649F6627B00DA11D661F829F2227B00D9D
:102C8000A11D621F739FB00DA11D621F839FA00D28
:102C9000611D221F749F3327A00D611D231F849F78
:102CA000600D211D822F762F6A2F11249F575040CF
:102CB0009AF0F1F088234AF0EE0FFF1FBB1F661F4A
:102CC000771F881F91505040A9F79E3F510580F013
:102CD0000C94C1150C940C165F3FE4F3983ED4F3AA
:102CE000869577956795B795F795E7959F5FC1F7B7
:102CF000FE2B880F911D9695879597F90895A1E26F
:102D00001A2EAA1BBB1BFD010DC0AA1FBB1FEE1F65
:102D1000FF1FA217B307E407F50720F0A21BB30BB0
:102D2000E40BF50B661F771F881F991F1A9469F72C
:102D300060957095809590959B01AC01BD01CF0188
:102D400008950E94BA16A59F900DB49F900DA49F60
:102D5000800D911D11240895B7FF0C94A1160E94B7
:102D6000A116821B930B0895EE0FFF1F0590F4919F
:102D7000E02D0994A29FB001B39FC001A39F700DE5
:102D8000811D1124911DB29F700D811D1124911D73
:062D90000895F894FFCF46
:102D9600CA08EE020000000029018900B60076018B
:102DA600E700C500D9000000000077054A05A60522
:102DB60020054305300521050D0A006572726F7204
:102DC6002069645F6D6F64656C00706572666F7212
:102DD6006D53696E676C6552656443616C696272B6
:102DE6006174696F6E203078343000706572666F7A
:102DF600726D53696E676C6552656443616C696296
:102E0600726174696F6E20307830300053504144DF
:102E1600206572726F72002C004C45465420494E54
:102E26004954204552524F52210052494748542096
:0C2E3600494E4954204552524F52210091
:00000001FF
