:100000000C945D000C9485000C9485000C94850084
:100010000C9485000C9485000C9485000C9485004C
:100020000C9485000C9436100C9485000C9485007B
:100030000C9485000C9485000C9485000C9485002C
:100040000C94EC0F0C9485000C94BA0F0C94940F44
:100050000C9485000C9485000C9485000C9485000C
:100060000C9474100C9485000000000024002700FC
:100070002A0000000000250028002B0004040404CE
:100080000404040402020202020203030303030342
:10009000010204081020408001020408102001021F
:1000A00004081020000000080002010000030407FB
:1000B0000000000000000000931111241FBECFEFCC
:1000C000D8E0DEBFCDBF11E0A0E0B1E0E2EEFCE29F
:1000D00002C005900D92AA3BB107D9F723E0AAEB25
:1000E000B1E001C01D92AC36B207E1F710E0CDE5FA
:1000F000D0E004C02197FE010E945A16CC35D107EA
:10010000C9F70E941B120C946F160C9400000895FE
:100110000895AF92BF92CF92DF92EF92FF920F932A
:100120001F93CF93DF936C017B018B01040F151F8D
:10013000EB015E01AE18BF08C017D10759F06991F5
:10014000D601ED91FC910190F081E02DC601099559
:10015000892B79F7C501DF91CF911F910F91FF9006
:10016000EF90DF90CF90BF90AF900895FC01538D3A
:10017000448D252F30E0842F90E0821B930B541781
:1001800010F0CF96089501970895FC01918D828D0E
:10019000981761F0A28DAE0FBF2FB11D5D968C91A7
:1001A000928D9F5F9F73928F90E008958FEF9FEFE6
:1001B0000895FC01918D828D981731F0828DE80FA2
:1001C000F11D858D90E008958FEF9FEF0895FC015C
:1001D000918D228D892F90E0805C9F4F821B910929
:1001E0008F739927089587E992E00E94E70021E044
:1001F000892B09F420E0822F089580E090E0892B7C
:1002000029F00E94F30081110C9400000895FC0174
:10021000A48DA80FB92FB11DA35ABF4F2C91848D67
:1002200090E001968F739927848FA689B7892C93C4
:10023000A089B1898C91837080648C93938D848D17
:10024000981306C00288F389E02D80818F7D80831A
:100250000895EF92FF920F931F93CF93DF93EC01DA
:1002600081E0888F9B8D8C8D98131AC0E889F9895D
:10027000808185FF15C09FB7F894EE89FF89608360
:10028000E889F98980818370806480839FBF81E0E1
:1002900090E0DF91CF911F910F91FF90EF90089523
:1002A000F62E0B8D10E00F5F1F4F0F731127E02EFE
:1002B0008C8D8E110CC00FB607FCFACFE889F98936
:1002C000808185FFF5CFCE010E940701F1CFEB8D34
:1002D000EC0FFD2FF11DE35AFF4FF0829FB7F8940A
:1002E0000B8FEA89FB8980818062CFCFCF93DF9328
:1002F000EC01888D8823B9F0AA89BB89E889F9893E
:100300008C9185FD03C0808186FD0DC00FB607FC72
:10031000F7CF8C9185FFF2CF808185FFEDCFCE01A5
:100320000E940701E9CFDF91CF91089590E0FC0191
:10033000EC55FF4F2491FC01E057FF4F3491FC0135
:10034000E458FF4FE491EE23C9F0222339F0233023
:1003500001F1A8F4213019F1223029F1F0E0EE0F7B
:10036000FF1FEE58FF4FA591B4918FB7F894EC9111
:10037000611126C030953E233C938FBF08952730EE
:10038000A9F02830C9F0243049F7809180008F7D92
:1003900003C0809180008F7780938000DFCF84B589
:1003A0008F7784BDDBCF84B58F7DFBCF8091B0008C
:1003B0008F778093B000D2CF8091B0008F7DF9CF3E
:1003C0003E2BDACFCF93DF9390E0FC01E057FF4F55
:1003D000249184589F4FFC0184918823D1F090E0B0
:1003E000880F991FFC01E859FF4FA591B491FC01BA
:1003F000EE58FF4FC591D49161110EC09FB7F8948C
:100400008C91E22FE0958E238C932881E223E88360
:100410009FBFDF91CF9108958FB7F894EC91E22BB5
:10042000EC938FBFF6CF1F93CF93DF93182FEB0181
:1004300061E00E94E201209739F460E0812FDF91B2
:10044000CF911F910C949601CF3FD10511F461E03B
:10045000F5CFE12FF0E0EC55FF4FE491E33031F1BF
:1004600040F4E130B1F0E230E1F0C038D1057CF782
:10047000E4CFE73029F1E83059F1E430B1F7809169
:100480008000806280938000D0938B00C0938A00AC
:1004900004C084B5806884BDC7BDDF91CF911F9132
:1004A000089584B5806284BDC8BDF7CF8091800077
:1004B000806880938000D0938900C0938800EDCF3E
:1004C0008091B00080688093B000C093B300E5CF06
:1004D0008091B00080628093B000C093B400DDCF03
:1004E0003FB7F8948091190290911A02A0911B02D3
:1004F000B0911C0226B5A89B05C02F3F19F00196AC
:10050000A11DB11D3FBFBA2FA92F982F8827BC016D
:10051000CD01620F711D811D911D42E0660F771F95
:10052000881F991F4A95D1F708958F929F92AF9295
:10053000BF92CF92DF92EF92FF924B015C010E943B
:1005400070026B017C010E9470026C197D098E099A
:100550009F09683E734081059105A8F321E0821A46
:100560009108A108B10888EEC80E83E0D81EE11CEE
:10057000F11C81149104A104B10429F7FF90EF90BC
:10058000DF90CF90BF90AF909F908F9008952FB73E
:10059000F894609115027091160280911702909163
:1005A00018022FBF08952091EF01260F3327331F24
:1005B00021323105ECF420916D02FC0190E080E0E5
:1005C000243069F082E00895A091EF012191AC01FF
:1005D00041535E4FA40FB52FB11D2C930196861782
:1005E00098F38091EF01680F6093EF0180E0089528
:1005F00081E0089510926D0281E080936C02109268
:10060000470261E082E10E94960161E083E10E947D
:100610009601E9EBF0E080818E7F808380818D7F81
:10062000808388E48093B80085E48093BC000895BB
:10063000CF93DF9391E09093CE018823B9F0C091DE
:10064000B800D091BA008091BC008A7B8093BC0036
:1006500060E082E10E94960160E083E10E949601E1
:100660000E94FA02D093BA00C093B800DF91CF91F4
:1006700008958F929F92AF92BF92CF92DF92EF92A6
:10068000FF920F931F93CF93DF93D0919602D132B5
:1006900008F0D7C0182FC09195020E9470026B011C
:1006A0007C0180916D0281116BC082E080936D02AC
:1006B00010936C028FEF80936B0210926A02D093BA
:1006C0006902A5E7B2E0E9E4F2E080E0D81391C066
:1006D0001092480280914802CC0FC82BC093480268
:1006E00080914702813009F088C0109247020E9431
:1006F00070026B017C01809148028093BB00809165
:100700006F0290917002A0917102B0917202892BD8
:100710008A2B8B2BA1F00E94700200916F02109126
:10072000700220917102309172026C197D098E095C
:100730009F09061717072807390708F442C0809158
:10074000BC0083FDD8CF85EC8093BC000E94700272
:100750006B017C0180916D02823009F450C0809160
:100760006B028F3F09F46FC080916B02803209F4F5
:100770006CC080916B02803309F469C084E026C0AC
:1007800080916F0290917002A0917102B0917202FB
:10079000892B8A2B8B2B09F484CF0E9470028090C6
:1007A0006F0290907002A0907102B09072026C196A
:1007B0007D098E099F0986169706A806B90608F0D6
:1007C00070CF80916E020E94180385E0109274022F
:1007D0001092960210927302DF91CF911F910F91A8
:1007E000FF90EF90DF90CF90BF90AF909F908F9051
:1007F00008959D9191938F5F69CF85EEA5CF8091EC
:100800006F0290917002A0917102B0917202892BD7
:100810008A2B8B2B09F49ECF0E94700200916F02ED
:100820001091700220917102309172026C197D0951
:100830008E099F09061717072807390708F08ACF7E
:10084000C0CF81E0C3CF80E0C1CF82E0BFCF83E0E3
:10085000BDCFCF92DF92EF92FF920F931F93CF9372
:10086000DF93D82FC62F613208F098C00E94700223
:100870006B017C0180916D0281116BC081E08093DE
:100880006D0280936C029FEF90936B0210926A024C
:100890009C0F909369028093480280914802DD0F7B
:1008A000D82BD093480280914702813009F078C05C
:1008B000109247020E9470026B017C0180914802F5
:1008C0008093BB0080916F0290917002A0917102A1
:1008D000B0917202892B8A2B8B2BA1F00E9470029F
:1008E00000916F021091700220917102309172029A
:1008F0006C197D098E099F09061717072807390704
:1009000008F448C08091BC0083FDD8CF85EC80936B
:10091000BC000E9470026B017C0180916D028130ED
:1009200009F440C080916A028C1710F4C0916A02E9
:10093000E9E4F2E0A7E2B2E080E08C1355C08C2F2E
:10094000DF91CF911F910F91FF90EF90DF90CF90AB
:10095000089580916F0290917002A0917102B09100
:100960007202892B8A2B8B2B09F484CF0E94700290
:1009700000916F0210917002209171023091720209
:100980006C197D098E099F09061717072807390773
:1009900008F070CF80916E020E941803C0E0CFCFA4
:1009A00085EEB5CF80916F0290917002A091710297
:1009B000B0917202892B8A2B8B2B09F4AECF0E9447
:1009C000700200916F0210917002209171023091BB
:1009D00072026C197D098E099F09061717072807EF
:1009E000390708F09ACFD6CF91919D938F5FA5CF0D
:1009F0000895E091260280912502E81730F4F0E096
:100A0000E95DFD4F808190E008958FEF9FEF08959D
:100A100090912602809125022FEF3FEF981748F41E
:100A2000E92FF0E0E95DFD4F208130E09F5F90937A
:100A30002602C90108958091250290912602891B02
:100A4000990B0895CF92DF92EF92FF920F931F932D
:100A5000CF93DF937C01CB018A0120917302222383
:100A600089F0EB016B01C40ED51ECC15DD0569F0D4
:100A70006991D701ED91FC910190F081E02DC701C2
:100A80000995F3CF642F0E94D302C801DF91CF9163
:100A90001F910F91FF90EF90DF90CF900895CF932B
:100AA000DF931F92CDB7DEB76983209173022223B3
:100AB000F9F020919602203258F021E030E0FC015C
:100AC0003383228390E080E00F90DF91CF910895EF
:100AD00080917402E82FF0E0EB58FD4F99819083EC
:100AE0008F5F809374028093960281E090E0ECCF58
:100AF00061E0CE0101960E94D302F7CF90E080E042
:100B000008950F931F93CF93DF93EC01142F052FBC
:100B100089819A812B8131E0309373022093950271
:100B20001092740210929602DC01ED91FC910190FA
:100B3000F081E02D099589819A81DC01ED91FC918C
:100B40000190F081E02D602F099589819A81DC0167
:100B5000ED91FC910190F081E02D612F099581E0EC
:100B60000E9439038883DF91CF911F910F910895DF
:100B70001F93CF93DF93EC01142F89819A812B81EE
:100B800031E0309373022093950210927402109218
:100B90009602DC01ED91FC910190F081E02D099528
:100BA00089819A81DC01ED91FC910190F081E02D29
:100BB000612F099581E00E9439038883DF91CF91ED
:100BC0001F9108950F931F93CF93DF938C01EB0137
:100BD000181619063CF5BC01625E7F4F6F3F710528
:100BE00019F014F06FEF70E085E00E94130270E0DE
:100BF00060E086E00E9413021C161D0614F5BE017B
:100C0000CF3FD10519F014F06FEF70E089E00E943A
:100C1000130270E060E08AE0DF91CF911F910F91A5
:100C20000C94130270E060E085E00E9413026EE114
:100C300070E0601B710B00321F4FDCF66FEF70E04D
:100C4000D8CF70E060E089E00E9413026627772722
:100C50006C1B7D0BC230DF4FF4F66FEF70E0DBCF23
:100C60001092C5011092C4010E94C7027093C30183
:100C70006093C20108950F931F93CF93DF938C016C
:100C8000D0E0C0E061E08DE00E94960162E370E098
:100C900080E090E00E94950260E08DE00E94960165
:100CA00064E670E080E090E00E94950221960C17C7
:100CB0001D0741F7DF91CF911F910F91089583E0B8
:100CC00090E00E943B066AE67FEF86E990E00E9492
:100CD000E2056AE872E080E090E00E94950270E030
:100CE00060E090E080E00C94E205FC0101900020BF
:100CF000E9F73197AF01481B590BBC0187E992E036
:100D00000C9489008F929F92AF92BF920F931F9382
:100D1000CF93DF93CDB7DEB7A1970FB6F894DEBFC0
:100D20000FBECDBF19A2423008F44AE08E010F5D1C
:100D30001F4F842E912CB12CA12CA50194010E944F
:100D40002516E62FB901CA01EA30F4F4E05DD801B6
:100D5000EE938D01232B242B252B79F790E080E057
:100D6000109719F0CD010E947506A1960FB6F89460
:100D7000DEBF0FBECDBFDF91CF911F910F91BF900E
:100D8000AF909F908F900895E95CE1CFCF93DF9370
:100D90000E947506EC0184E291E00E9475068C0FBA
:100DA0009D1FDF91CF910895CF93DF93EC0141E038
:100DB00060E80E94B80541E06FEFCE010E94B805DF
:100DC00040E060E0CE010E94B805498561E9CE01AE
:100DD0000E94B80541E060E0CE010E94B80540E005
:100DE0006FEFCE010E94B80540E060E8CE010E949E
:100DF000B80542E060E0CE01DF91CF910C94B805D8
:100E00000F931F93CF93DF93EC0189819A812B81FC
:100E100031E0309373022093950210927402109285
:100E20009602DC01ED91FC910190F081E02D099595
:100E300081E00E943903888362E08B810E9429044B
:100E4000109226028093250289819A81DC01ED911E
:100E5000FC910284F385E02D099500E0182F89812B
:100E60009A81DC01ED91FC910284F385E02D0995D6
:100E7000802B912BDF91CF911F910F910895CF92ED
:100E8000DF92EF92FF92CF93DF936C01990FEE0800
:100E9000FF08F7FE19C06DE287E992E00E94290180
:100EA000EC0166277727CB016C197D098E099F0914
:100EB0004AE00E9482068C0F9D1FDF91CF91FF9028
:100EC000EF90DF90CF9008954AE0C701B601DF911F
:100ED000CF91FF90EF90DF90CF900C948206CF934C
:100EE000DF93EC0189819A812B8131E03093730289
:100EF000209395021092740210929602DC01ED91FB
:100F0000FC910190F081E02D099581E00E94390368
:100F1000888361E08B810E942904109226028093CD
:100F2000250289819A81DC01ED91FC910284F3858F
:100F3000E02D0995DF91CF910895CF93DF93EC01D8
:100F4000462F416060E00E94B8050E94C702788782
:100F50006F8363E1CE010E946F07877089F48C81F3
:100F60009D81892BB1F30E94C7022F813885621BB6
:100F7000730B8C819D818617970758F780E00BC013
:100F800041E06BE0CE010E94B80540E060E0CE0198
:100F90000E94B80581E0DF91CF9108958F929F92D2
:100FA000AF92BF92CF92DF92EF92FF920F931F9377
:100FB000CF93DF936C017B01EA0160E50E946F072C
:100FC0008F5F880F90E09983888366E4C6010E9452
:100FD0006F07082F10E00F5F1F4F1D830C83A88140
:100FE000B0E020E03FE24AE350E00E9447166C5038
:100FF0007E4F8F4F9F4F38EE832E33E0932EA12CE0
:10100000B12CA50194010E942516D8010E94521608
:101010006C507E4F8F4F9F4FA50194010E94251663
:101020002A873B874C875D8761E5C6010E940007E0
:101030008C01112702C0000F111F9A95E2F70F5F74
:101040001F4F1F830E83A881B0E020E03FE24AE3F8
:1010500050E00E9447166C507E4F8F4F9F4FA50166
:1010600094010E942516D8010E9447166C507E4FAD
:101070008F4F9F4FA50194010E9425162E873F8711
:10108000488B598B60E7C6010E946F078F5F880FFE
:1010900090E09B838A8361E7C6010E9400079C0160
:1010A000992702C0880F991F3A95E2F70196998710
:1010B0008887F7012381222331F02E813F81821B13
:1010C000930B99878887AA81B0E020E03FE24AE34A
:1010D00050E00E9447166C507E4F8F4F9F4F28EE76
:1010E000C22E23E0D22EE12CF12CA70196010E9402
:1010F0002516A885B9850E9447166C507E4F8F4FE4
:101100009F4FA70196010E9425162A8B3B8B4C8B83
:101110005D8BDF91CF911F910F91FF90EF90DF904A
:10112000CF90BF90AF909F908F900895CF93DF9313
:10113000EB0161E00E946F0784FB992790F9988387
:1011400083FB992790F99A8382FB992790F99983D9
:1011500086FB992790F99B83881F8827881F8C839B
:10116000DF91CF9108953F924F925F926F927F925D
:101170008F929F92AF92BF92CF92DF92EF92FF92A7
:101180000F931F93CF93DF93CDB7DEB7A1970FB621
:10119000F894DEBF0FBECDBF8C0160EC0E946F07DC
:1011A0008E3EA9F087E291E00E94750660ECC801CE
:1011B0000E946F07682F70E090E080E04AE00E9494
:1011C000820684E291E00E947506F12C8EC469E8E3
:1011D000C8010E946F07482F416069E8C8010E945A
:1011E000B80540E068E8C8010E94B80541E060E841
:1011F000C8010E94B80541E06FEFC8010E94B80520
:1012000040E060E0C8010E94B80561E9C8010E94A1
:101210006F07D80119968C9341E060E0C8010E94E5
:10122000B80540E06FEFC8010E94B80540E060E8F3
:10123000C8010E94B80560E6C8010E946F07482FE8
:10124000426160E6C8010E94B80540E250E064E4F3
:10125000C8010E9481054FEF61E0C8010E94B805F6
:1012600041E060E8C8010E94B80541E06FEFC801A5
:101270000E94B80540E060E0C8010E94B80546E061
:101280006FEFC8010E94B80563E8C8010E946F07AC
:10129000482F446063E8C8010E94B80547E06FEF3B
:1012A000C8010E94B80541E061E8C8010E94B80584
:1012B00041E060E8C8010E94B8054BE664E9C80156
:1012C0000E94B80540E063E8C8010E94B8050E948A
:1012D000C702F8017087678363E8C8010E946F073F
:1012E000811117C0D80114968D919C91892BA1F37F
:1012F0000E94C702F80127813085621B730B84812D
:1013000095818617970740F788E791E00E94C60607
:101310005CCF41E063E8C8010E94B80562E9C801FA
:101320000E946F07D82E40E061E8C8010E94B8050E
:1013300046E06FEFC8010E94B80563E8C8010E944B
:101340006F07482F4B7F63E8C8010E94B80541E052
:101350006FEFC8010E94B80541E060E0C8010E943B
:10136000B80540E06FEFC8010E94B80540E060E8B2
:10137000C8010E94B805D80111968D919C911297D1
:1013800013962C9131E030937302209395021092C2
:10139000740210929602DC01ED91FC910190F081B3
:1013A000E02D60EB099581E00E943903F80180830C
:1013B00066E083810E942904109226028093250210
:1013C0007E01F7E1EF0EF11C3701B7E0CB2ECA9496
:1013D000CC2079F0D80111968D919C91DC01ED9192
:1013E000FC910284F385E02D0995F30181933F017F
:1013F000EECF41E06FEFC8010E94B80540E06FE416
:10140000C8010E94B8054CE26EE4C8010E94B8050C
:1014100040E06FEFC8010E94B80544EB66EBC801DD
:101420000E94B805BCE0D7FEB0E0A0E090E061E02B
:1014300070E08D2D8F77492F46954695469550E063
:10144000F701E40FF51F2081F92FF770DF2E9B17AE
:1014500010F08A1339C0F701E40FF51FAB0101C08A
:10146000440FDA94EAF74095242320839F5F90335A
:1014700011F7D80111968D919C91129713962C918A
:1014800031E030937302209395021092740210920F
:101490009602DC01ED91FC910190F081E02D60EB72
:1014A0000995A7E0DA2EDA94DD20C1F0F8018181F8
:1014B0009281D7016D917D01DC01ED91FC9101904C
:1014C000F081E02D0995EFCF30E002C035952795EA
:1014D000FA95E2F720FFCACFAF5FC8CF81E00E9444
:1014E0003903F801808341E06FEFC8010E94B8051D
:1014F00040E060E0C8010E94B80540E06FEFC8011D
:101500000E94B80540E069E0C8010E94B80540E0CB
:1015100060E1C8010E94B80540E061E1C8010E9495
:10152000B80541E064E2C8010E94B8054FEF65E2EA
:10153000C8010E94B80540E065E7C8010E94B805EF
:1015400041E06FEFC8010E94B8054CE26EE4C801AB
:101550000E94B80540E068E4C8010E94B80540E276
:1015600060E3C8010E94B80540E06FEFC8010E9427
:10157000B80549E060E3C8010E94B80540E064E5B1
:10158000C8010E94B80544E061E3C8010E94B805A3
:1015900043E062E3C8010E94B80543E860E4C80183
:1015A0000E94B80545E266E4C8010E94B80540E023
:1015B00060E6C8010E94B80540E067E2C8010E94E9
:1015C000B80546E060E5C8010E94B80540E061E565
:1015D000C8010E94B80546E962E5C8010E94B80545
:1015E00048E066E5C8010E94B80540E367E5C80128
:1015F0000E94B80540E061E6C8010E94B80540E0DD
:1016000062E6C8010E94B80540E064E6C8010E9495
:10161000B80540E065E6C8010E94B80540EA66E604
:10162000C8010E94B80541E06FEFC8010E94B805EB
:1016300042E362E2C8010E94B80544E167E4C801E0
:101640000E94B8054FEF69E4C8010E94B80540E068
:101650006AE4C8010E94B80540E06FEFC8010E942B
:10166000B8054AE06AE7C8010E94B80540E06BE7A8
:10167000C8010E94B80541E268E7C8010E94B805A8
:1016800041E06FEFC8010E94B80544E363E2C8017E
:101690000E94B80540E062E4C8010E94B8054FEF1F
:1016A00064E4C8010E94B80546E265E4C8010E94EE
:1016B000B80545E066E4C8010E94B80540E460E46E
:1016C000C8010E94B80546E06EE0C8010E94B80556
:1016D0004AE160E2C8010E94B80540E463E4C80141
:1016E0000E94B80540E06FEFC8010E94B80543E0D2
:1016F00064E3C8010E94B80544E465E3C8010E94A0
:10170000B80541E06FEFC8010E94B80544E061E30D
:10171000C8010E94B80549E06BE4C8010E94B80501
:1017200045E06CE4C8010E94B80544E06DE4C801DE
:101730000E94B80540E06FEFC8010E94B80540E084
:1017400064E4C8010E94B80540E265E4C8010E9453
:10175000B80548E067E4C8010E94B80548E268E4BB
:10176000C8010E94B80540E067E6C8010E94B805BC
:1017700044E060E7C8010E94B80541E061E7C801A4
:101780000E94B8054EEF62E7C8010E94B80540E02C
:1017900066E7C8010E94B80540E067E7C8010E94FB
:1017A000B80541E06FEFC8010E94B80541E06DE067
:1017B000C8010E94B80540E06FEFC8010E94B8055B
:1017C00041E060E8C8010E94B80548EF61E0C80147
:1017D0000E94B80541E06FEFC8010E94B80541E0E2
:1017E0006EE8C8010E94B80541E060E0C8010E94AF
:1017F000B80540E06FEFC8010E94B80540E060E81E
:10180000C8010E94B80544E06AE0C8010E94B8051A
:1018100064E8C8010E946F07482F4F7E64E8C80142
:101820000E94B80541E06BE0C8010E94B805BE0106
:10183000635E7F4FC8010E949608AE014F5F5F4F05
:10184000BE01635E7F4FC8010E94CE078D8D882345
:1018500009F4FAC08B859C85AD85BE858C57924F67
:10186000AF4FBF4F2F8D222309F4F3C04B855C850A
:101870006D857E854E545D4F6F4F7F4F440F551FD2
:10188000661F771F840F951FA61FB71F28A122234D
:1018900061F04F85588969897A894C565D4F6F4F41
:1018A0007F4F840F951FA61FB71F29A1222361F028
:1018B0004B895C896D897E894A5D5D4F6F4F7F4F93
:1018C000840F951FA61FB71FF80182879387A487EF
:1018D000B58748EE61E0C8010E94B805D8011A96A4
:1018E000CD90DD90ED90FC901D97B0E2CB16BEE45C
:1018F000DB06E104F10408F4DAC0BE01635E7F4F49
:10190000C8010E949608AE014F5F5F4FBE01635E43
:101910007F4FC8010E94CE078D8D882309F4A6C091
:101920008B859C85AD85BE858C57924FAF4FBF4F41
:101930002F8D222309F49FC04B855C856D857E85A4
:101940004E545D4F6F4F7F4F440F551F661F771FDB
:10195000840F951FA61FB71F38A0332061F04F8555
:10196000588969897A894C565D4F6F4F7F4F840F34
:10197000951FA61FB71F29A1222309F498C04C0167
:101980005D01E6E28E0EE2E09E1EA11CB11CC814B1
:10199000D904EA04FB0408F48AC0AB81B0E020E07B
:1019A0003FE24AE350E00E9447162B013C01F4EF6E
:1019B0004F0EF1E05F1E611C711CA70196012819F2
:1019C00039094A095B09A8EEB3E00E9447164B01AA
:1019D0005C01C301B20120ED37E040E050E00E941D
:1019E0002516820E931EA41EB51EC301B20128EE59
:1019F00033E040E050E00E942516C501B4010E948A
:101A00002516332031F08F819885280F391F411D0D
:101A1000511D211531054105510509F47FC0BA0159
:101A2000A901415051096109710990E080E02A0142
:101A30003B01442445284628472851F1769567956F
:101A4000579547950196F3CF86E39BE0A0E0B0E081
:101A500009CF2E8D222309F419CF4B855C856D8526
:101A60007E854C565D4F6F4F7F4F0CCF86E39BE0DA
:101A7000A0E0B0E05DCF2E8D222309F46DCF4B8521
:101A80005C856D857E854C565D4F6F4F7F4F60CF77
:101A9000982F8827482B592B61E7C8010E948105A0
:101AA000D8011A96CD92DD92ED92FC921D9741E0FD
:101AB00061E0C8010E94B80560E4C8010E949D076A
:101AC000F82E86E391E0FF2071F042E061E0C8016A
:101AD0000E94B80560E0C8010E949D07F82E8111A0
:101AE00020C087E591E00E94C6068F2DA1960FB613
:101AF000F894DEBF0FBECDBFDF91CF911F910F9144
:101B0000FF90EF90DF90CF90BF90AF909F908F901D
:101B10007F906F905F904F903F90089550E040E02D
:101B2000BBCF48EE61E0C8010E94B805DECF0F933D
:101B30001F93CF93DF93EC010E94C70278876F83D6
:101B400063E1CE010E946F078770C9F48C819D818B
:101B5000892BB1F30E94C7022F813885621B730B5A
:101B60008C819D818617970758F781E08E830FEF50
:101B70001FEFC801DF91CF911F910F9108956EE182
:101B8000CE010E9400078C0141E06BE0CE010E9473
:101B9000B805EFCF2F923F924F925F926F927F9254
:101BA0008F929F92AF92BF92CF92DF92EF92FF926D
:101BB0000F931F93CF93DF9300D000D0CDB7DEB744
:101BC0009C838B830E94C7027093CD016093CC01EC
:101BD0008FE493E00E94970D909324028093230258
:101BE00081E493E00E94970D90932202809321025A
:101BF0008DE593E00E94970D4C019093CB0180936B
:101C0000CA01A0902102B0902202209023023090BD
:101C100024028501021913091093C9010093C80118
:101C2000C501820D931D9C012E5531403A832983B5
:101C30003093C7012093C6018091C4019091C501E2
:101C4000B801681B790B072E000C880B990B0E94BA
:101C50002C1520E030E04AE754E40E94B8156B01EF
:101C60007C016091CC017091CD018091C201909175
:101C7000C301681B790B90E080E00E942A159B014C
:101C8000AC01C701B6010E9482142B013C014092B5
:101C9000BE015092BF016092C0017092C101B801B3
:101CA000012E000C880B990B0E942C1520E030E0CF
:101CB00040E450E40E94B81520E030E040E251E4F6
:101CC0000E9482146B017C01A3019201C301B20145
:101CD0000E94161420E030E040EA51E40E94821491
:101CE0009B01AC01C701B6010E9416140E94F414B6
:101CF0006B017093BD016093BC01C50188199909FE
:101D00003BEF831691047CF02FEF3FEF17FD02C0ED
:101D100021E030E049815A81429FC001439F900DEC
:101D2000529F900D1124880F991F9093BB018093AF
:101D3000BA018091BA019091BB012B813C811216AE
:101D400013060CF061C08C0D9D1D280F391F6B818F
:101D50007C81681B790BC9010E94E205C1010E94C8
:101D60003F0783E891E00E947506C5010E943F0786
:101D700083E891E00E947506C8010E943F0783E84E
:101D800091E00E947506C301B2010E94F414CB01D8
:101D90000E943F0783E891E00E94750689819A813D
:101DA0000E943F0783E891E00E947506C6010E94E9
:101DB0003F0784E291E00E9475068091C8019091EE
:101DC000C9019093C5018093C4018091CC01909189
:101DD000CD019093C3018093C2010F900F900F909B
:101DE0000F90DF91CF911F910F91FF90EF90DF90B7
:101DF000CF90BF90AF909F908F907F906F905F90AB
:101E00004F903F902F900895B601681B790B2B815E
:101E10003C81261B370B4B815C81640F751F9BCF68
:101E2000CF93DF9381E090E00E943B068FE493E044
:101E30000E94970D909324028093230281E493E003
:101E40000E94970D90932202809321028DE593E0EA
:101E50000E94970D9093CB018093CA010E94300697
:101E60008091CA019091CB018A3F91052CF48AE6BA
:101E70009FEF0E94CA0DF4CFCAE0D0E08AE69FEF40
:101E80000E94CA0D2197D1F781E090E00E943B06A5
:101E90006AE67FEF8AE69FEF0E94E20564EF71E059
:101EA00080E090E00E94950270E060E090E080E0C9
:101EB000DF91CF910C94E20585ED8093BC00809179
:101EC0006F0290917002A0917102B0917202079618
:101ED000A11DB11D23E0B695A795979587952A95E5
:101EE000D1F72091BC0024FD03C010926D0208952B
:101EF00040916F0250917002609171027091720274
:101F0000452B462B472B69F30097A105B10541F0FE
:101F10002AE22A95F1F700C00197A109B109E1CFA2
:101F200080916E020C9418031F920F920FB60F92BD
:101F300011242F933F934F935F936F937F938F93CE
:101F40009F93AF93BF93EF93FF9387E992E00E9433
:101F50000701FF91EF91BF91AF919F918F917F9179
:101F60006F915F914F913F912F910F900FBE0F9006
:101F70001F9018951F920F920FB60F9211242F9356
:101F80008F939F93EF93FF93E091A702F091A802A4
:101F90008081E091AD02F091AE0282FD1BC0908184
:101FA0008091B0028F5F8F732091B102821741F050
:101FB000E091B002F0E0E956FD4F958F8093B002BA
:101FC000FF91EF919F918F912F910F900FBE0F90E6
:101FD0001F9018958081F4CF1F920F920FB60F9229
:101FE00011242F933F938F939F93AF93BF9380912F
:101FF000150290911602A0911702B091180230912B
:10200000140223E0230F2D3758F50196A11DB11DB1
:10201000209314028093150290931602A093170246
:10202000B09318028091190290911A02A0911B029C
:10203000B0911C020196A11DB11D809319029093CD
:102040001A02A0931B02B0931C02BF91AF919F9103
:102050008F913F912F910F900FBE0F901F90189569
:1020600026E8230F0296A11DB11DD2CF1F920F9219
:102070000FB60F9211248F93809113028F5F80937C
:102080001302809112028091130281110AC0809183
:1020900012021092B2008F910F900FBE0F901F90FE
:1020A000189580911202809113028823A1F38091E8
:1020B0001202809112028F5F80931202109213021B
:1020C0001092B20080911202882339F0809112029E
:1020D000893018F480911202DECF8091120289308B
:1020E000D0F210921202D7CF1F920F920FB60F921A
:1020F00011242F933F934F935F936F937F938F930D
:102100009F93AF93BF93EF93FF938091B900887F24
:10211000803609F44AC0F0F5883209F4A7C018F5F2
:10212000803109F49BC0B8F4882309F4F9C08830E1
:1021300009F494C0FF91EF91BF91AF919F918F915E
:102140007F916F915F914F913F912F910F900FBEB3
:102150000F901F901895883109F488C0803251F78C
:1021600080936B0214C0803409F49DC040F4803326
:10217000B9F38833F9F680936B0285ECB0C08035F3
:1021800009F485C0883509F496C0883499F60E9410
:102190005C0FD0CF883909F48CC038F5883729F026
:1021A00050F4883611F0803729F683E080936D0271
:1021B0001092110257C0883809F47BC0803919F099
:1021C000803809F0B7CF80911102803208F071C0D9
:1021D000E091110281E08E0F809311028091BB008B
:1021E000F0E0EF50FE4F80833DC0803B39F0E0F4DB
:1021F000803A09F479C0883A09F09CCF84E0809352
:102200006D021092F0011092EF01E0911F02F09127
:10221000200209958091EF0181110FC081E0809328
:10222000EF011092CF0109C0803C09F4A6CF883C91
:1022300009F4A3CF883B09F07DCFE091F00181E064
:102240008E0F8093F001F0E0E153FE4F8081809388
:10225000BB009091F0018091EF0129C0809148026C
:102260008093BB0085EC8093BC0064CF90916A02A0
:1022700080916902981758F5E0916A0281E08E0F0B
:1022800080936A02F0E0E75BFD4F8081E9CFE09147
:102290006A0281E08E0F80936A028091BB00F0E0B9
:1022A000E75BFD4F808390916A02809169029817E5
:1022B000C8F285E8D8CFE0916A0281E08E0F809362
:1022C0006A028091BB00F0E0E75BFD4F8083809164
:1022D0006C0281115CCF81E08093470284EA809395
:1022E000BC0010926D0226CF85EC8093BC0010924A
:1022F0006D0280911102803230F4E0911102F0E021
:10230000EF50FE4F10826091110270E0E0911D02CB
:10231000F0911E0281EF91E00995109211020ACF0F
:1023200010926B0234CF10929A021092990288EEAA
:1023300093E0A0E0B0E080939B0290939C02A09376
:102340009D02B0939E0224E031E0309398022093E6
:10235000970225EC30E03093A4022093A30224ECF2
:1023600030E03093A6022093A50220EC30E03093B9
:10237000A8022093A70221EC30E03093AA02209318
:10238000A90222EC30E03093AC022093AB0226ECA1
:1023900030E03093AE022093AD021092B002109262
:1023A000B1021092B2021092B3021092370310924F
:1023B00036038093380390933903A0933A03B09384
:1023C0003B0386E191E09093350380933403809141
:1023D0004003883068F58F5F8093400380936B03E0
:1023E00024E333E030935F0320935E0389E280931C
:1023F00060031092620310926103109263033093A2
:10240000510320935003809352031092540310926F
:102410005303109255033093430320934203809358
:102420004403109246031092450310924703089507
:1024300010926B03D5CF789484B5826084BD84B547
:10244000816084BD85B5826085BD85B5816085BDAF
:1024500080916E00816080936E0010928100809167
:1024600081008260809381008091810081608093EF
:102470008100809180008160809380008091B10014
:1024800084608093B1008091B00081608093B0003F
:1024900080917A00846080937A0080917A008260D3
:1024A00080937A0080917A00816080937A00809195
:1024B0007A00806880937A001092C100E091A702B0
:1024C000F091A80282E08083E091A302F091A4023F
:1024D0001082E091A502F091A60280E18083109223
:1024E000AF02E091AB02F091AC0286E08083E09114
:1024F000A902F091AA02808180618083E091A90203
:10250000F091AA02808188608083E091A902F09115
:10251000AA02808180688083E091A902F091AA02DA
:1025200080818F7D80831092260210922502109266
:102530007402109296020E94FA0287E890E090934B
:10254000200280931F0288E890E090931E028093FF
:102550001D0261E08BE00E94E20161E088E00E94E0
:10256000E20161E087E00E94E20160E08BE00E940E
:10257000960160E088E00E94960160E087E00E949A
:10258000960164E670E080E090E00E94950260E0D1
:102590008BE00E94E20162E370E080E090E00E9444
:1025A00095028DE593E00E94B308811109C085E88A
:1025B00091E00E94750683E090E00E943B06F1CF17
:1025C00084EF91E090936203809361038DE593E043
:1025D0000E94D40641E36AE88DE593E00E94B805C5
:1025E00081E38093600360E088E00E94E20162E39F
:1025F00070E080E090E00E9495028FE493E00E94FA
:10260000B308811109C086E991E00E94750683E054
:1026100090E00E943B06F1CF84EF91E09093540349
:10262000809353038FE493E00E94D40643E36AE867
:102630008FE493E00E94B80583E38093520360E047
:1026400087E00E94E20162E370E080E090E00E9497
:10265000950281E493E00E94B308811109C087EAE2
:1026600091E00E94750683E090E00E943B06F1CF66
:1026700084EF91E0909346038093450381E493E0D7
:102680000E94D40645E36AE881E493E00E94B8051D
:1026900085E38093440385E090E00E943B06C0E020
:1026A000D0E00E94100F0E945F0666E970E086E9A4
:1026B00090E00E94E2058FE493E00E94970D9093D2
:1026C00024028093230281E493E00E94970D90936B
:1026D0002202809321022091230230912402820F52
:1026E000931F893B91403CF70E94C7026B017C011C
:1026F0000E943006EE24FF240E94C7026C197D0957
:102700008E099F09683E73408105910528F486E98A
:1027100090E00E94CA0DF0CF70E060E090E080E0B1
:102720000E94E2050E94100F0E945F0666E970E0B9
:1027300086E990E00E94E2058FE493E00E94970D05
:10274000909324028093230281E493E00E94970DEA
:10275000909322028093210220912302309124023F
:10276000820F931F893B91403CF70E943006809175
:102770002302909124022091210230912202820FA3
:10278000931F883B91402CF486E990E00E94CA0D8B
:10279000EECF66E970E086E990E00E94E20581E014
:1027A00090E00E943B068FE493E00E94970D909387
:1027B00024028093230281E493E00E94970D90937A
:1027C0002202809321022091230230912402820F61
:1027D000931F893B91403CF70E94C7026B017C012B
:1027E0000E943006EE24FF240E94C7026C197D0966
:1027F0008E099F096C3D75408105910528F486E995
:1028000090E00E94CA0DF0CF70E060E090E080E0C0
:102810000E94E205209709F444CF0E94F300882328
:1028200009F43FCF0E9400003CCF5058BB27AA2795
:102830000E942D140C947E150E94701538F00E9491
:10284000771520F039F49F3F19F426F40C946D1598
:102850000EF4E095E7FB0C946715E92F0E948F15A5
:1028600058F3BA17620773078407950720F079F4C5
:10287000A6F50C94B1150EF4E0950B2EBA2FA02DF1
:102880000B01B90190010C01CA01A0011124FF271D
:10289000591B99F0593F50F4503E68F11A16F04018
:1028A000A22F232F342F4427585FF3CF4695379517
:1028B0002795A795F0405395C9F77EF41F16BA0BDC
:1028C000620B730B840BBAF09150A1F0FF0FBB1F8A
:1028D000661F771F881FC2F70EC0BA0F621F731FD3
:1028E000841F48F4879577956795B795F7959E3F30
:1028F00008F0B0CF9395880F08F09927EE0F9795C1
:10290000879508950E9496140C947E150E94771561
:1029100058F00E94701540F029F45F3F29F00C94A4
:10292000671551110C94B2150C946D150E948F15FA
:1029300068F39923B1F3552391F3951B550BBB27EE
:10294000AA2762177307840738F09F5F5F4F220F33
:10295000331F441FAA1FA9F335D00E2E3AF0E0E82A
:1029600032D091505040E695001CCAF72BD0FE2F74
:1029700029D0660F771F881FBB1F26173707480708
:10298000AB07B0E809F0BB0B802DBF01FF279358C0
:102990005F4F3AF09E3F510578F00C9467150C9408
:1029A000B2155F3FE4F3983ED4F38695779567952B
:1029B000B795F7959F5FC9F7880F911D96958795F5
:1029C00097F90895E1E0660F771F881FBB1F621714
:1029D00073078407BA0720F0621B730B840BBA0BD2
:1029E000EE1F88F7E09508950E94FB146894B111DA
:1029F0000C94B21508950E94971588F09F5798F08F
:102A0000B92F9927B751B0F0E1F0660F771F881FF3
:102A1000991F1AF0BA95C9F714C0B13091F00E940D
:102A2000B115B1E008950C94B115672F782F882760
:102A3000B85F39F0B93FCCF3869577956795B39534
:102A4000D9F73EF490958095709561957F4F8F4FA3
:102A50009F4F0895E89409C097FB3EF490958095A8
:102A6000709561957F4F8F4F9F4F9923A9F0F92F54
:102A700096E9BB279395F695879577956795B795D2
:102A8000F111F8CFFAF4BB0F11F460FF1BC06F5FB8
:102A90007F4F8F4F9F4F16C0882311F096E911C0CA
:102AA000772321F09EE8872F762F05C0662371F0EB
:102AB00096E8862F70E060E02AF09A95660F771FFF
:102AC000881FDAF7880F9695879597F9089597F9F3
:102AD0009F6780E870E060E008959FEF80EC0895C4
:102AE00000240A94161617061806090608950024ED
:102AF0000A9412161306140605060895092E039467
:102B0000000C11F4882352F0BB0F40F4BF2B11F4DA
:102B100060FF04C06F5F7F4F8F4F9F4F089557FD39
:102B20009058440F551F59F05F3F71F04795880F3B
:102B300097FB991F61F09F3F79F0879508951216D2
:102B400013061406551FF2CF4695F1DF08C016167E
:102B500017061806991FF1CF86957105610508942F
:102B60000895E894BB2766277727CB0197F9089546
:102B70000E94CB150C947E150E94701538F00E94AF
:102B8000771520F0952311F00C9467150C946D15B2
:102B900011240C94B2150E948F1570F3959FC1F308
:102BA000950F50E0551F629FF001729FBB27F00DFB
:102BB000B11D639FAA27F00DB11DAA1F649F662750
:102BC000B00DA11D661F829F2227B00DA11D621F9F
:102BD000739FB00DA11D621F839FA00D611D221F59
:102BE000749F3327A00D611D231F849F600D211D3D
:102BF000822F762F6A2F11249F5750409AF0F1F0C0
:102C000088234AF0EE0FFF1FBB1F661F771F881F28
:102C100091505040A9F79E3F510580F00C946715E4
:102C20000C94B2155F3FE4F3983ED4F38695779504
:102C30006795B795F795E7959F5FC1F7FE2B880FCE
:102C4000911D9695879597F90895A1E21A2EAA1BD2
:102C5000BB1BFD010DC0AA1FBB1FEE1FFF1FA2174C
:102C6000B307E407F50720F0A21BB30BE40BF50B49
:102C7000661F771F881F991F1A9469F760957095D2
:102C8000809590959B01AC01BD01CF0108950E94F4
:102C90006016A59F900DB49F900DA49F800D911D6F
:102CA00011240895B7FF0C9447160E944716821B03
:102CB000930B0895EE0FFF1F0590F491E02D0994FA
:102CC000A29FB001B39FC001A39F700D811D11246D
:102CD000911DB29F700D811D1124911D0895F894CE
:022CE000FFCF24
:102CE2000000000029018900B6007601E700C50056
:102CF200D900000000004F0522057E05F8041B05DF
:102D02000805F9040D0A006572726F722069645F2A
:102D12006D6F64656C00706572666F726D53696E7B
:102D2200676C6552656443616C6962726174696F54
:102D32006E203078343000706572666F726D536940
:102D42006E676C6552656443616C69627261746935
:102D52006F6E2030783030005350414420657272DB
:102D62006F72002C004241434B20494E495420458A
:102D720052524F5221004C45465420494E4954204C
:102D82004552524F522100524947485420494E4918
:0A2D920054204552524F5221000018
:00000001FF
